:020000040800F2
:10000000B0B300207D1700080104000803040008B5
:10001000070400080B0400080F040008000000009B
:100020000000000000000000000000004501000882
:1000300013040008000000008901000829110008CD
:1000400097170008971700089717000897170008D8
:10005000971700089717000897170008FF0D00086A
:1000600097170008971700089717000897170008B8
:1000700097170008971700089717000897170008A8
:100080009717000897170008971700089717000898
:10009000971700089717000897170008210E000807
:1000A0009717000897170008971700089717000878
:1000B00097170008F70E0008971700089717000811
:1000C0009717000897170008971700089717000858
:1000D00097170008C9140008CB15000897170008E7
:1000E0009717000897170008971700089717000838
:1000F0009717000897170008971700089717000828
:100100009717000897170008971700089717000817
:100110008D16000897170008971700089717000812
:1001200097170008971700089717000897170008F7
:10013000DFF80CD009F034F9004800473B03000811
:10014000B0B30020224B19680868B0E8F00F80F3C4
:100150000988BFF36F8F4FF0000080F311884EF0D5
:100160000D0E70470000000006480068006880F32C
:10017000088862B661B6BFF34F8FBFF36F8F00DFA1
:1001800000BF00BF08ED00E0EFF30980BFF36F8F01
:100190000F4B1A6820E9F00F106008B54FF03000DF
:1001A00080F31188BFF34F8FBFF36F8F04F0BDFB57
:1001B0004FF0000080F31188BDE808401968086816
:1001C000B0E8F00F80F30988BFF36F8F704700BF6E
:1001D00080000020EFF305807047000008B50CE0B8
:1001E0004FF0FF336A461946002005F000FA044636
:1001F000012C02D1009800F0D9FBF1E73AE04FF072
:10020000FF31012005F094F90446012C2FD16248FA
:10021000008800F4004088B15F480088C0F30D05F5
:10022000EAB25E49012000F0A1FB00205A49088093
:1002300062020021594806F06AF900BF5848008858
:1002400000F4004090B156480088C0F30D05EAB2B2
:100250005449022000F08AFB4FF4007200215148FB
:1002600006F055F900204E49088000BF00BF0A2063
:1002700004F035FAC3E710B504464B48007801286E
:100280000AD1002301224FF4FD714848006805F0AF
:10029000F9F900204449087000F0DBF9444800688F
:1002A00008B9012000E000204149086010BD7CB57C
:1002B000054601F0BAF800F0F9FC00F0FBF900F097
:1002C00075FD002006F02DF900F0F4F905F00DFFA2
:1002D000AFF25D0001231A464FF4FA71009035A089
:1002E00005F0A4FD3749086004F031FD0446002004
:1002F00003462246012100903248006805F074FB55
:100300003148022100230A02CDE900102FA1AFF2EB
:10031000131003F06AFF2548042100230A02CDE9E7
:1003200000102DA1AFF24B1003F05FFF2F480068C3
:1003300003F0A9FF05F0FCFE7CBD1CB54FF4407036
:1003400001F02EFA00F0F8FE284801210023802257
:10035000CDE9001026A1AFF2A90003F046FF04F09A
:1003600081FC00201CBD08B52448006870B904F069
:10037000EEFC04460020034622460121009011486D
:10038000006805F031FB01201C49086002E00A20EA
:1003900004F0A5F9FBE700005A0000203801002016
:1003A00060000020380300203C00002010000020E6
:1003B000880123424175746F52656C6F61645469A2
:1003C0006D657200140000200400002075617274D5
:1003D0005F7461736B0000006D65737361676570B6
:1003E000726F636573735F7461736B00000000204C
:1003F00073746172745F7461736B00000800002095
:10040000704700BFFEE700BFFEE700BFFEE700BF8A
:10041000FEE770470CB50020019000906C48006822
:1004200040F480306A49086000BF6948006800F401
:10043000003000900198401C0190009818B9019874
:10044000B0F5A06FF1D16248006800F4003010B13F
:100450000120009001E0002000900098012843D185
:100460005C48006840F010005A490860084600687F
:1004700020F0030008600846006840F002000860B1
:1004800053484068524948600846406848600846FA
:10049000406840F4806048600846406820F47C1062
:1004A00048600846406840F4E81048600846006824
:1004B00040F08070086000BF4548006800F00070A0
:1004C0000028F9D04248406820F0030040494860C5
:1004D0000846406840F00200486000BF3C48406861
:1004E00000F00C000828F9D10CBD10B5FFF792FF01
:1004F00010BD10B53648006840F00100344908606E
:100500000846406834490840314948600846006858
:10051000324908402E4908600846006820F48020CF
:1005200008600846406820F4FE0048604FF41F0051
:100530008860FFF7DAFF4FF000602949086010BDBE
:1005400010B5002100200022214B5B6803F00C0154
:1005500021B1042906D0082928D107E0214B224CDB
:10056000236027E01F4B204C236023E0184B5B687F
:1005700003F47010164B5B6803F48032022303EB24
:10058000904022B9194B4343174C23600DE0104BA8
:100590005B6803F4003323B1144B4343124C2360D4
:1005A00003E0104B4343104C236003E00D4B0E4C13
:1005B000236000BF00BF064B5B68C3F303130C4C02
:1005C000E15C094B1B68CB40074C236010BD000069
:1005D00000100240002002400000FFF8FFFFF6FE7E
:1005E00008ED00E000127A001800002000093D002C
:1005F0001C00002010B50120FE4908700020FE49B3
:1006000008604FF47A7004F06AF80120FB49C1F8E1
:10061000A80110BD0120F8490860704708B5012104
:10062000082001F047FC4FF48060ADF80000102076
:100630008DF8030003208DF802006946F04801F0B0
:100640007DF94FF48061EE4801F025FA4FF4967081
:1006500008BD10B5EB48007801280FD100F02FFD40
:100660000446E9480168204608F056FC06D20021FD
:10067000E64802F053FD0020E249087010BD10B5B5
:100680000020E04908704FF4E15142F2107000F090
:1006900047FC10BD08B50121082001F00BFC022029
:1006A000ADF8000028208DF803006946D44801F019
:1006B00045F908BD10B54021D54801F009FE40219B
:1006C000D44801F005FEFFF7E5FF00F06DFCFFF7F1
:1006D000D6FFFFF7A3FFD049086010BD40F2FB1022
:1006E0007047CD48006870474FF49670704710B55A
:1006F00004460120C3490870C348046041F28831B0
:10070000C24802F00BFD4FF47A7003F0E8FF10BD11
:100710000146012070472DE9F04105460C460522AF
:10072000BEA1284605F0E9FE20B90222BDA120465F
:1007300005F0E3FE0722BCA1284605F0DEFE50B915
:100740000222B8A1204605F0D8FE10B9FFF752FFEB
:1007500001E0FFF75FFF0822B5A1284605F0CDFEB6
:1007600060B9204609F026FD06460F463046394658
:1007700008F0B6FB8046FFF7BAFF00BF0522AFA125
:10078000284605F0BAFE0A22AEA1284605F0B5FEBD
:10079000002828D10D22AEA1204605F0AEFE70B98A
:1007A0002046FFF7B5FF0646012E07D000230122A1
:1007B00040F2FD11AA48006804F064FF00BF0D225A
:1007C000A8A1204605F099FE0F22AAA1204605F017
:1007D00094FE0E22ABA1204605F08FFE0E22ADA1A5
:1007E000204605F08AFEBDE8F0812DE9FE4F074660
:1007F000384606F0B6FE0646002E6DD0A9A130465A
:1008000007F050F9D0F81480B8F5617F60D1A7A146
:10081000304607F047F9D0F810900722A5A14846C6
:1008200005F06BFE30B900230122C8218C48006816
:1008300004F028FF0922A1A1484605F05EFE50B948
:10084000FFF752FF04460023012221468448006836
:1008500004F018FF00BF0B229BA1484605F04DFE97
:1008600058BB9CA1304607F01DF90290029807F092
:10087000C7F8824600241DE02146029807F0DDF803
:100880008346002510E02946584607F0D6F8006A4E
:1008900001902946584607F0D0F800690090DDE93C
:1008A0000010FFF738FF6D1C584607F0A9F8A84262
:1008B000E9DC641C5445DFDB00BF022287A1484607
:1008C00005F01BFE032286A1484605F016FE00BF78
:1008D000304605F0C1FF00BFBDE8FE8F2DE9F05F97
:1008E00004468B4607F0E3FA804600227D4B6DA15B
:1008F000404607F062FA7CA27FA1404607F090FADA
:100900007EA26AA1404607F08BFA07F0F0FA814612
:10091000064632466FA1404607F05EF907F0C7FA77
:10092000824606463146484607F012F9224676A12D
:10093000504607F075FA404607F00DF8074638466E
:1009400007F066FF05462B480078012806D1EAB279
:10095000394600F078FD002026490870384608F036
:1009600051FF404605F078FFBDE8F09F70B50646A0
:100970000C461546012E06D0022E0ED0032E11D0A5
:10098000042E11D10FE02A462146012000F05BFD24
:1009900029462046FFF729FF06E029462046FFF7B3
:1009A0009DFF01E000E000BF00BF70BD2DE9F047F2
:1009B0000446264607F07BFA8246304608F020FAC5
:1009C00007463A460B4637A1504607F0F6F9B6F50A
:1009D000FA7F09D009DCB6F5967F07D007DC642ED4
:1009E00006D06A2E05D097E0CAE0A0E0B8E096E015
:1009F000A8E0AEE02C000020A88121420080214226
:100A0000000C01402D0000203000002000040040B8
:100A1000003801400044004034000020706F7765CA
:100A2000720000006F6E00007363616E5F696400A6
:100A30007072655F74657374000000007072696E97
:100A400074000000636172645F76616C756500001C
:100A5000746573745F636172645F6F6E650000003C
:100A600010000020746573745F636172645F747753
:100A70006F000000746573745F636172645F746813
:100A800072656500746573745F636172645F666F3D
:100A900075720000746573745F636172645F666988
:100AA00076650000636F646500000000747970650E
:100AB00000000000636F6E6E6563740073656C66A2
:100AC0005F7465737400000073616D706C655F74B2
:100AD0006573740076616C756500000071630000D9
:100AE0007365740000208C405363616E20537563FE
:100AF00063657373000000006D7367006461746167
:100B00005F7265706F727400746573745F63617295
:100B1000645F696E666F0000C82E5DD14EE0A6F27C
:100B20002D1020B3012823D0022855D121E0A6F2B0
:100B3000F510092850D2DFE800F02A333A2B4F484D
:100B40004F4F2C0030A2AFF25001504607F068F929
:100B500043E031A2AFF26001504607F061F93CE09A
:100B600031A2AFF26C01504607F05AF935E000BFF0
:100B700000BF32A2AFF28001504607F051F92CE0DD
:100B800032A2AFF28C01504607F04AF925E000BFCF
:100B900000BF33A2AFF2A001504607F041F91CE0BC
:100BA00033A2AFF2AC01504607F03AF915E033A298
:100BB000AFF2BC01504607F033F90EE032A2AFF2BB
:100BC000C801504607F02CF907E033A2AFF2D80174
:100BD000504607F025F900BF00BF00BF504606F0A1
:100BE000BAFE8146484607F013FE0546EAB249467A
:100BF000012000F028FC484608F004FE504605F0AD
:100C00002BFEBDE8F0870000496E697420537563C0
:100C100063657373000000005561727420496E694A
:100C200074204572726F720053656C662054657350
:100C300074205375636365737300000053656C66BD
:100C40002054657374204572726F720053696D7021
:100C50006C6520546573742053756363657373000A
:100C6000546573742043617264204572726F720020
:100C70004D6F746F72204572726F720048656174B7
:100C8000204572726F720000556172742053756353
:100C900063657373000000004361726420496E73E2
:100CA00065727420537563636573730008B5012121
:100CB000402001F0FFF80420ADF8000010208DF86E
:100CC000030003208DF802006946044800F036FE58
:100CD0000421024800F0DFFE08BD000000180140BA
:100CE00008B50121082001F0E5F80220ADF8000068
:100CF00028208DF803006946284800F01FFE08BD33
:100D000010B5044614B10120254908702448007824
:100D100068B32021234800F0A4FE58B14FF40041ED
:100D2000214800F09EFE28B101211F4800F099FEE5
:100D300001281CD10A2000F046FA0020184908704A
:100D40002021184800F08DFE08B9012010BD4FF495
:100D50000041154800F085FE08B90220F6E70121A0
:100D6000114800F07EFE012815D10320EEE7202176
:100D70000C4800F076FE01280DD1C1030A4800F0AE
:100D800070FE012807D10121074800F06AFE10B962
:100D90000120034908700020D8E70000000C014042
:100DA0003800002000100140000801400EB501216C
:100DB000084601F07FF8FFF793FF0121084600F095
:100DC000D3FE0220019000208DF808000C208DF841
:100DD000090001208DF80A0001A802F0EFF90720B0
:100DE0008DF8000009208DF8010000208DF8020028
:100DF00001208DF80300684600F0D7FC0EBD10B549
:100E00004FF4967000F0FDF90221154800F029FE1C
:100E100010B9012013490870022002F046FA10BDF3
:100E200010B50A2000F0EDF920210F4800F019FE5E
:100E300088B90E48006803F08EFE04460CA008F046
:100E4000BDFC012C07D134B120070E490860BFF367
:100E50004F8FBFF36F8F202002F027FA10BD0000E4
:100E6000000C01403C000020001001404000002028
:100E7000BBD6B8B4C8CECEF132B5C4D4CBD0D02115
:100E80000D0A000004ED00E07FB505460C46012187
:100E9000022001F01CF8ADF80850ADF80440002025
:100EA000ADF80A00ADF8060001A93C4801F03EFB90
:100EB00001221146394801F0B0FE1D208DF80000D6
:100EC00001208DF8010000208DF8020001208DF82E
:100ED0000300684600F069FC0121304801F082FE01
:100EE0007FBD10B500212E4A11605160472131208D
:100EF000FFF7CAFF10BD10B50121284802F03BF9E9
:100F0000012808D1264802684068521C40F10000C0
:100F100023490A6048600121204802F03DF910BDD4
:100F200030B589B005460C460121022000F0CFFF04
:100F30000121082000F0BEFF0120ADF8200018209C
:100F40008DF8230003208DF8220008A9154800F031
:100F5000F5FCADF81850ADF814400020ADF81A00BB
:100F6000ADF8160005A90D4801F0E0FA7020ADF8C3
:100F700004000120ADF806000020ADF80C0001A926
:100F8000064801F09FFB0821044801F071FF012190
:100F9000024801F027FE09B030BD00000004004007
:100FA00048000020000C014008B50121082000F095
:100FB00081FF4FF48070ADF8000010208DF8030021
:100FC00003208DF802006946534800F0B7FC4FF447
:100FD0000070ADF8000010208DF8030003208DF89C
:100FE000020069464C4800F0A9FC1020ADF8000052
:100FF00048208DF8030003208DF80200694646481A
:1010000000F09CFC0820ADF8000010208DF80300D3
:1010100003208DF8020069463F4800F08FFC08BDB0
:1010200070B505460024012D08D141023A4800F070
:1010300032FD2902384800F030FD09E04FF480719C
:10104000354800F028FD4FF40071334800F025FDCD
:1010500000261AE00821304800F01DFD0A2000F0AB
:1010600090F810212C4800F0FCFC08B144F0010479
:101070004FF6FF7000EA44040821274800F00DFDF8
:101080000A2000F07EF8701C86B2102EE2DB012DE3
:1010900004D12902204800F0FEFC04E04FF4007166
:1010A0001D4800F0F8FC04F0040008B1002404E03E
:1010B0004FF6FF7000EA44042411204670BD2DE96C
:1010C000F14F86B0154802904FF4967000F07BF80F
:1010D0000698FFF7A5FF0490029807F0BDFE0446AE
:1010E0000D46049807F08CFE804600220C4B07F05A
:1010F00095FD00220B4BCDE9000107F001FE0646ED
:1011000022462B4607F0FCFD824607F0E9FE0390DD
:10111000039807B0BDE8F08F000C0140922409400D
:1011200000FE8F4000FEAF4010B504F05CF80128CF
:1011300001D005F015F810BD10B5042000F07FFBBC
:10114000364800683649B0FBF1F03649087033483C
:1011500000683349B0FBF1F44FF47A704443012046
:10116000314908804FF0E020006940F002004FF064
:10117000E021086108464461006940F0010008610F
:1011800010BD70B5034600224FF0E0267569254E6C
:10119000367803FB06F44FF0E026B16910E04FF01B
:1011A000E026B06988420BD0884202D20E1A32443F
:1011B00002E02E1A0E4432440146A24200D300E05F
:1011C000EDE700BF70BD70B5044604F00CF80128CF
:1011D00010D015480088844206D313480088B4FB19
:1011E000F0F5284603F07BFA0F480088B4FBF0F1D5
:1011F00000FB11444FF47A7104FB01F0FFF7C1FFCB
:1012000070BD30B50446002504E04FF47A70FFF756
:10121000B8FF6D1CA542F8D330BD000018000020B7
:1012200040420F00500000205200002000BF7047D5
:1012300000BF704700BFFE4A128802F04002002A39
:10124000F9D0C2B2FA4B1B1D1A80704710B586B098
:1012500004460121C80400F03AFE0121102000F0EC
:1012600029FE4FF48060ADF8140003208DF81600BD
:1012700018208DF8170005A9EE4800F05FFB4FF429
:101280000060ADF8140004208DF8170005A9E948A6
:1012900000F054FB34208DF8000008208DF8010088
:1012A00001208DF802008DF80300684600F07DFAF9
:1012B00001940020ADF80800ADF80A00ADF80C006C
:1012C000ADF810000C20ADF80E0001A9DA4800F0CE
:1012D00098FE012240F22551D74800F02AFF012153
:1012E000D54800F01AFF06B010BD10B586B0044610
:1012F0000121480400F0EBFD0121042000F0DAFD9B
:101300000420ADF8140003208DF8160018208DF885
:10131000170005A9C94800F011FB0820ADF814001A
:1013200004208DF8170005A9C44800F007FB26200B
:101330008DF8000008208DF8010001208DF80200D2
:101340008DF80300684600F030FA01940020ADF8F3
:101350000800ADF80A00ADF80C00ADF810000C2044
:10136000ADF80E0001A9B64800F04BFE012240F294
:101370002551B34800F0DDFE012240F22441B0487F
:1013800000F0D7FE0121AE4800F0C7FE06B010BD48
:1013900010B586B00446012144F2040000F08AFD35
:1013A0004FF40070ADF8140003208DF816001820DB
:1013B0008DF8170005A9A14800F0C0FA4FF480602D
:1013C000ADF8140004208DF8170005A99B4800F023
:1013D000B5FA25208DF8000008208DF801000020C6
:1013E0008DF8020001208DF80300684600F0DDF959
:1013F00001940020ADF80800ADF80A00ADF80C002B
:10140000ADF810000C20ADF80E0001A9884800F0DE
:10141000F8FD012240F22551854800F08AFE0121A5
:10142000834800F07AFE06B010BD10B54FF4E130ED
:10143000FFF7AEFF4FF4E130FFF757FF4FF4E13015
:10144000FFF704FF10BD2DE9F04105460E46174693
:10145000002435E0012D0AD1315D754800F0CAFE47
:1014600000BF4021724800F033FF0128F9D1022D5E
:101470000AD1315D724800F0BDFE00BF40217048C6
:1014800000F026FF0128F9D1032D0AD1315D6D4806
:1014900000F0B0FE00BF40216A4800F019FF0128AB
:1014A000F9D1042D0AD1315D634800F0A3FE00BFDD
:1014B0004021614800F00CFF0128F9D1601CC4B242
:1014C000BC42C7DBBDE8F08138B540F22551584831
:1014D00000F014FF002860D0554800F08FFEC4B221
:1014E0005948008840B97B2C03D101205749087026
:1014F00002E000205549087054480078012847D17F
:101500005148008800F40040002846D17B2C05D1CA
:101510004F480088401C4E49088006E07D2C04D1CD
:101520004C480088401C4B4908804948008849497C
:10153000098888420AD14448008840F40040424962
:101540000880002042490880424908803E480088BF
:10155000C0F30D0040490C543B480088401C3A49F8
:1015600008803B48008814280ADC3A480088142880
:1015700006DC08460088C0F30D00B0F5807F0CDD66
:10158000002031490880324908803249088004E04F
:1015900000202D4908802D4908702B48008800F450
:1015A000004088B12D48006870B169462B4800683A
:1015B00004F066F9009838B14FF08050284908606F
:1015C000BFF34F8FBFF36F8F38BD38B540211C4834
:1015D00000F08BFE40F22551194800F08FFE60B1FB
:1015E000174800F00BFEC4B21E4801880088401C5A
:1015F0001C4A10801C48445411E01021104800F08F
:1016000067FE60B10E480088C4B20D48001D008816
:10161000C4B21448008840F40040124908801148C0
:10162000008800F4004080B30C48006868B31DE0F7
:101630000038014000100140004C0040000801400B
:1016400000440040004800405A000020580000209C
:101650005E0000205C000020380100200400002013
:1016600004ED00E0600000203803002069463C489B
:10167000006804F005F9009838B14FF080503949FE
:101680000860BFF34F8FBFF36F8F38BD38B540F29E
:101690002551354800F032FE002849D0324800F08C
:1016A000ADFDC4B23148008800F4004000283FD1AD
:1016B0007B2C05D12E480088401C2D49088006E06F
:1016C0007D2C04D12B480088401C2A4908802848DA
:1016D00000882849098888420AD12448008840F4B3
:1016E00000402249088000202149088021490880C3
:1016F0001E480088C0F30D001F490C541B48008889
:10170000401C1A4908801A480088142809DC194826
:101710000088142805DC08460088C0F30D008028E6
:1017200006DD002011490880114908801149088010
:101730000E48008800F4004088B10948006870B184
:1017400069460748006804F09BF8009838B14FF0EC
:10175000805004490860BFF34F8FBFF36F8F38BDCF
:101760000400002004ED00E0004C00406600002072
:101770006A000020680000203805002006488047E5
:1017800006480047FEE7FEE7FEE7FEE7FEE7FEE766
:10179000FEE7FEE7FEE7FEE7F3040008310100087C
:1017A00031490143314A1160704770B5002100236F
:1017B0000F22C47804B32D4C246804F4E064C4F50B
:1017C000E064210AC1F10403CA40447804FA03F139
:1017D0008478144021430901254C0678A1550478EA
:1017E00004F01F050124AC4005786D11AD0005F132
:1017F000E025C5F8004109E0047804F01F05012444
:10180000AC401C4D0678761145F8264070BD1A4A4A
:101810000A400243154B1B1F1A60704739B1134A27
:10182000121D12680243114B1B1D1A6006E00F4A7D
:10183000121D126882430D4B1B1D1A60704704284D
:1018400008D14FF0E021096941F004014FF0E02296
:10185000116107E04FF0E021096921F004014FF028
:10186000E0221161704700000000FA050CED00E075
:1018700000E400E080E100E080FFFF1F10B50446B7
:10188000CC48844208D10121042000F02DFB002126
:10189000042000F029FB46E0C748844208D101211A
:1018A000082000F021FB0021082000F01DFB3AE099
:1018B000C248844208D10121102000F015FB00210C
:1018C000102000F011FB2EE0BD48844208D1012118
:1018D000202000F009FB0021202000F005FB22E081
:1018E000B848844208D10121402000F0FDFA0021CF
:1018F000402000F0F9FA16E0B348844208D10121F3
:10190000802000F0F1FA0021802000F0EDFA0AE0DA
:10191000AE48844207D10121801500F0E5FA00218C
:10192000A01500F0E1FA10BD10B50121084600F045
:10193000DBFA0021012000F0D7FA10BD2DE9F041BB
:10194000024600250026002000230024002791F8ED
:1019500003C00CF00F0591F803C00CF0100CBCF1A3
:10196000000F03D091F802C04CEA050591F800C0C1
:10197000BCF1000F31D0146800202BE04FF0010CB7
:101980000CFA00F3B1F800C00CEA03069E4220D125
:1019900083004FF00F0C0CFA03F7BC4305FA03FC6D
:1019A0004CEA040491F803C0BCF1280F06D14FF0B3
:1019B000010C0CFA00FCC2F814C00AE091F803C054
:1019C000BCF1480F05D14FF0010C0CFA00FCC2F835
:1019D00010C0401C0828D1D31460B1F800C0BCF17D
:1019E000FF0F34DD546800202EE000F1080C4FF0AA
:1019F000010808FA0CF3B1F800C00CEA03069E4295
:101A000021D183004FF00F0C0CFA03F7BC4305FA09
:101A100003FC4CEA040491F803C0BCF1280F05D183
:101A200000F1080C08FA0CF8C2F8148091F803C011
:101A3000BCF1480F07D100F1080C4FF0010808FA7B
:101A40000CF8C2F81080401C0828CED35460BDE8C2
:101A5000F0814FF6FF710180022181700421C17075
:101A600070470246002093680B400BB1012000E054
:101A7000002070470146886880B270470246002007
:101A8000D3680B400BB1012000E0002070470146F5
:101A9000C86880B2704701617047416170470AB100
:101AA000016100E041617047C16070474FF48032CE
:101AB0000A4382618161826182698269704702465C
:101AC0000020434B18684FF68073184040EA02101C
:101AD00008433F4B186070473E49C8617047F0B5F6
:101AE0000A46002300240021002500F00046B6F13C
:101AF000004F02D1364EF16901E0354E7168C0F3F6
:101B0000034583B200F44016B6F5401F08D121F01A
:101B100070612F4E766826F070662D4F7E6012E061
:101B200000F48016B6F5801F06D1032606FA05F4E8
:101B3000A14341F0706106E0460D360103FA06F656
:101B4000B14341F0706122B1460D360103FA06F649
:101B5000314300F00046B6F1004F02D11C4EF16156
:101B600001E01B4E7160F0BD30B500228B071C0FE9
:101B70000F2303FA04F2164B08338C1053F8243069
:101B80009343134C08348D1044F8253023468C10B1
:101B900053F824308C07240F00FA04F423430C4C30
:101BA00008348D1044F8253030BD0A49DC31086016
:101BB0007047000000080140000C01400010014087
:101BC0000014014000180140001C014000200140A9
:101BD0000000014000002042DF48006840F00100A2
:101BE000DD49086008464068DC490840DA49486039
:101BF00008460068DA490840D74908600846006886
:101C000020F4802008600846406820F4FE00486008
:101C10004FF41F0088607047CF49096821F4803174
:101C2000CD4A11601146096821F480211160B0F598
:101C3000803F03D0B0F5802F0ED106E0C649096879
:101C400041F48031C44A116007E0C349096841F496
:101C5000A021C14A116000E000BF00BF704710B56D
:101C600001460022002300204A11012A02D1BA4C69
:101C7000236806E0022A02D1B74C236A01E0B64C81
:101C8000636A01F01F02012494401C400CB1012042
:101C900000E0002010BD38B5002000900024002591
:101CA00000BF3120FFF7DBFF05460098401C009085
:101CB0000098B0F5A06F01D0002DF2D03120FFF7D1
:101CC000CEFF08B1012400E00024204638BD0146C3
:101CD0000020A14A106820F0F80040EAC10010601E
:101CE0007047A04908607047024600209A4B586828
:101CF00020F47C1042EA01031843974B5860704768
:101D000098490866704701460020934A506820F0C1
:101D100003000843506070478F48406800F00C0093
:101D20007047014600208C4A506820F0F0000843BC
:101D30005060704701460020874A506820F4E060F8
:101D400008435060704701460020834A506820F4E1
:101D5000605040EAC1005060704729B17E4A527A13
:101D600002437D4B5A7204E07B4A527A82437A4B9B
:101D70005A7270477B49D83108607047014600208D
:101D8000754A506820F44040084350607047002175
:101D9000714A20321170704A82F82010012802D056
:101DA00004280AD104E001216B4A2032117005E0B9
:101DB0000521694A2032117000E000BF00BF704762
:101DC0006949086070476449096A0143624A1162BF
:101DD0007047654944390860704730B500210022DA
:101DE000002400235C4D6D6805F00C0121B104292D
:101DF00005D0082923D105E05C4D056022E05B4D4C
:101E000005601FE0544D6D6805F47012524D6D6809
:101E100005F48034022505EB92421CB9544D55431C
:101E200005600BE04C4D6D6805F400351DB1504D5B
:101E30005543056002E04D4D5543056002E04B4DB2
:101E4000056000BF00BF444D6D6805F0F001090951
:101E5000484D6B5C0568DD4045603F4D6D6805F49D
:101E6000E061090A434D6B5C4568DD4085603A4D91
:101E70006D6805F46051C90A3E4D6B5C4568DD40F4
:101E8000C560354D6D6805F44041890B3A4D6B5C7A
:101E9000C568B5FBF3F5056130BD29B12E4A52691D
:101EA00002432D4B5A6104E02B4A526982432A4B6C
:101EB0005A61704729B1284A92690243264B9A61B8
:101EC00004E0254A92698243234B9A61704729B105
:101ED000214AD2690243204BDA6104E01E4AD269EA
:101EE00082431D4BDA61704729B11B4AD268024315
:101EF000194BDA6004E0184AD2688243164BDA6064
:101F0000704729B1144A12690243134B1A6104E065
:101F1000114A12698243104B1A61704712494039C5
:101F2000086070470F49C86470470B49C871704713
:101F30000948406A40F0807007494862704701468E
:101F40000020054A92680A400AB1012000E0002002
:101F50007047014988727047001002400000FFF886
:101F6000FFFFF6FE000042428004424200127A0067
:101F700000093D006C0000207C00002010B50446E4
:101F8000FB48844209D101218803FFF7ADFF0021FE
:101F90004FF48040FFF7A8FF32E0F648844209D1B1
:101FA00001214804FFF7ADFF00214FF40030FFF797
:101FB000A8FF25E0F048844209D101218804FFF7F9
:101FC000A0FF00214FF48020FFF79BFF18E0EB48B3
:101FD000844209D10121C804FFF793FF00214FF487
:101FE0000020FFF78EFF0BE0E548844208D1012175
:101FF0000805FFF786FF00214FF48010FFF781FFEF
:1020000010BD2DE9F04786B005460E460024A246D5
:1020100000BFA1460027B08900B100BF2F462C8A1F
:102020004CF6FF700440F08804432C82AC894EF6D5
:10203000F3100440B0883189084371890843044390
:10204000AC81AC8A4FF6FF400440B0890443AC82B7
:1020500001A8FFF7C2FEC648874202D1DDF810A0F2
:1020600001E0DDF80CA0A88900F4004040B10AEBC3
:10207000CA0000EB0A1031684900B0FBF1F807E034
:102080000AEBCA0000EB0A1031688900B0FBF1F8D6
:102090006420B8FBF0F004012009642101FB1089E1
:1020A000A88900F4004040B1322000EBC900B0FB29
:1020B000F1F000F00700044308E0322000EB0910C3
:1020C0006421B0FBF1F000F00F0004432C8106B056
:1020D000BDE8F0874FF41651016000218180C18076
:1020E00001810C21418100218181704710B5024698
:1020F0000020108A4FF2FF0318400B884C882343BE
:102100008C882343CC8823431843108210BD0021C0
:10211000018041808180C180704721B1828942F471
:102120000052828104E082894DF6FF731A40828159
:102130007047F0B50346002400260025002040F635
:102140006A17B94200D100BF1846C1F3421401F02A
:102150001F06012707FA06F5012C01D10C3004E017
:10216000022C01D1103000E014301AB107682F435F
:10217000076002E00768AF430760F0BD1AB1838AC9
:102180000B43838202E0838A8B4383827047028AF7
:102190004FF6F0731A400282028A0A4302827047A5
:1021A00082894FF2FF731A40828182890A438281B9
:1021B000704721B1828942F00202828104E0828963
:1021C0004FF6FD731A4082817047028A4FF6DF7323
:1021D0001A400282028A0A430282704721B1028AAF
:1021E00042F48042028204E0028A4BF6FF731A40F6
:1021F00002827047C1F308028280704701468888D6
:10220000C0F308007047818941F001018181704766
:10221000028BD2B20283028B42EA01220283704710
:10222000028B02F47F420283028B0A4302837047CF
:1022300021B1828A42F02002828204E0828A4FF633
:10224000DF731A408282704721B1828A42F0100205
:10225000828204E0828A4FF6EF731A4082827047CE
:1022600021B1828A42F00802828204E0828A4FF61B
:10227000F7731A408282704721B1828942F400428A
:10228000828103E08289C2F30E028281704721B10C
:10229000828A42F40062828204E0828A4FF2FF73F3
:1022A0001A4082827047828A4FF6FB731A408282FC
:1022B000828A0A438282704721B1828A42F00202F6
:1022C000828204E0828A4FF6FD731A408282704750
:1022D00002460020B1F5007F00D100BF13880B40FB
:1022E0000BB1012000E00020704701F40072B2F54C
:1022F000007F00D100BFCA430280704770B502461C
:10230000002400230025002040F66A16B14200D1C7
:1023100000BFC1F3421501F01F03012606FA03F3C3
:10232000012D02D19689334006E0022D02D1168A92
:10233000334001E0968A33400C12012606FA04F479
:102340001688344013B10CB1012000E0002070BDAC
:1023500010B50022002340F66A14A14200D100BF4C
:102360000A1201249440A3B2DC43048010BD000093
:10237000003801400044004000480040004C00404C
:102380000050004010B50446FE48844208D10121A7
:10239000C014FFF7A9FD0021E014FFF7A5FDC4E07C
:1023A000B4F1804F08D101210846FFF7AAFD0021B2
:1023B0000120FFF7A6FDB8E0F348844208D10121CF
:1023C0000220FFF79EFD00210220FFF79AFDACE0FE
:1023D000EE48844208D101210420FFF792FD00213C
:1023E0000420FFF78EFDA0E0E948844208D10121D6
:1023F0000820FFF786FD00210820FFF782FD94E00A
:10240000E448844208D101211020FFF77AFD002121
:102410001020FFF776FD88E0DF48844208D10121D3
:102420002020FFF76EFD00212020FFF76AFD7CE0F1
:10243000DA48844208D101214014FFF755FD0021FC
:102440006014FFF751FD70E0D548844209D10121A5
:10245000C804FFF749FD00214FF40020FFF744FDB9
:1024600063E0D048844209D101210805FFF73CFD13
:1024700000214FF48010FFF737FD56E0CA48844230
:1024800009D101214805FFF72FFD00214FF400106D
:10249000FFF72AFD49E0C548844208D101214020C8
:1024A000FFF72FFD00214020FFF72BFD3DE0C04846
:1024B000844208D101218020FFF723FD00218020E4
:1024C000FFF71FFD31E0BB48844208D10121801590
:1024D000FFF717FD0021A015FFF713FD25E0B64813
:1024E000844209D101210804FFF7FEFC00214FF4CA
:1024F0008030FFF7F9FC18E0B048844209D101218F
:102500004804FFF7F1FC00214FF40030FFF7ECFC2A
:102510000BE0AB48844208D101218804FFF7E4FCBA
:1025200000214FF48020FFF7DFFC10BD002202885D
:10253000944B98420ED0994B98420BD0B0F1804FFB
:1025400008D0914B984205D0904B984202D0904BC6
:10255000984204D14FF68F731A404B881A438D4B23
:10256000984207D08C4B984204D04FF6FF431A4054
:10257000CB881A4302808B8883850B880385814B27
:1025800098420BD0854B984208D08B4B984205D08F
:102590008A4B984202D08A4B984201D10B7A03862B
:1025A00001238382704770B5002400220023058C2C
:1025B0004FF6FE7635400584028C8388048B4FF6F7
:1025C0008F752C40B51E2C400D882C43751E2A405B
:1025D0000D892A434D882A436A4DA8420BD06F4D7E
:1025E000A84208D0744DA84205D0744DA84202D02C
:1025F000734DA84213D14FF6F7752A404D892A43EF
:102600004FF6FB752A408D882A434FF6FF652B4015
:102610004FF6FF552B408D892B43CD892B4383806B
:102620000483CD888586028470BD70B500240022A5
:102630000023058C4FF6EF7635400584028C8388A5
:10264000048B48F6FF752C404FF6FF452C400D8853
:102650004FF6FF7606EA05252C434FF6DF752A4034
:102660000D8906EA05152A434D8806EA05152A4311
:10267000444DA84202D0494DA8421DD14FF67F7566
:102680002A404D894FF6FF7606EA05152A434FF694
:10269000BF752A408D8806EA05152A434FF6FF3597
:1026A0002B404FF2FF752B408D8906EA85052B43A1
:1026B000CD8906EA85052B4383800483CD88058771
:1026C000028470BD70B5002400220023058C4FF6F3
:1026D000FF6635400584028C8388848B4FF68F75A6
:1026E0002C404FF6FC752C400D882C434FF6FF55BF
:1026F0002A400D894FF6FF7606EA05252A434D88C4
:1027000006EA05252A431F4DA84202D0234DA842C0
:102710001DD14FF2FF752A404D894FF6FF7606EA2C
:1027200005252A434FF6FF352A408D8806EA052500
:102730002A434EF6FF752B404DF6FF752B408D89D1
:1027400006EA05152B43CD8906EA05152B43838040
:102750008483CD888587028470BD70B500220023F4
:102760000024058C4EF6FF7635400584038C848862
:10277000828B48F6FF752A404FF6FF452A400D88A8
:1027800020E00000002C0140000400400008004050
:10279000000C0040001000400014004000340140D4
:1027A000004C01400050014000540140001800401E
:1027B000001C004000200040004001400044014057
:1027C000004801404FF6FF7606EA05252A434DF6FC
:1027D000FF752B400D8906EA05352B434D8806EA27
:1027E00005352B43FA4DA84202D0FA4DA84208D134
:1027F0004BF6FF752C408D894FF6FF7606EA85155E
:102800002C4384808283CD88A0F84050038470BD1F
:10281000828B4FF2FF331A408283828B4FF6FF7315
:1028200003EA01231A4382837047F0B50C4615462C
:10283000002200210026078C4EF6FF7C07EA0C07D9
:102840000784828B018C4FF6FF7707EA043640F647
:10285000FF473A404FF6FF7707EA05273A434FF61E
:10286000FF7707EA03373A43D94FB8420ED0D94F22
:10287000B8420BD0B0F1804F08D0D74FB84205D046
:10288000D64FB84202D0D64FB84206D14DF6FF77A8
:10289000394046F48057394305E047F6FF57394041
:1028A00044F48057394382830184F0BD828B4FF614
:1028B000F3731A408283828B0A4382837047F0B598
:1028C0000C461546002200210026078C4FF6FF6CAF
:1028D00007EA0C070784828B018C4FF6FF7707EA23
:1028E00004264FF60C773A404FF6FF7707EA0317B6
:1028F0002F433A43B64FB8420ED0B64FB8420BD032
:10290000B0F1804F08D0B44FB84205D0B34FB842B1
:1029100002D0B34FB84206D14FF6FF57394046F4C4
:102920008077394305E04FF2FF57394044F4807710
:10293000394382830184F0BD028B4FF2FF331A408A
:102940000283028B4FF6FF7303EA01231A430283CB
:102950007047F0B50C461546002200210026078C72
:102960004FF6EF7C07EA0C070784028B018C4FF6C9
:10297000FF7707EA041640F6FF473A404FF6FF7725
:1029800007EA03373A434FF6FF7707EA05273A434A
:102990008F4FB8420ED08F4FB8420BD0B0F1804F5E
:1029A00008D08D4FB84205D08C4FB84202D08C4F22
:1029B000B84206D14FF6DF77394046F01007394369
:1029C00005E04FF65F77394044F010073943028342
:1029D0000184F0BD028B4FF6F3731A400283028B21
:1029E0000A4302837047F0B50C46154600220021C9
:1029F000068C4FF6FE773E400684028B018C4FF624
:102A00000C7632407E1C06EA03162E433243704E8B
:102A1000B0420ED06F4EB0420BD0B0F1804F08D014
:102A20006D4EB04205D06D4EB04202D06C4EB042F9
:102A300006D14FF6FD76314044F00106314305E002
:102A40004FF6F576314044F00106314302830184AC
:102A5000F0BD70B505460C465D4885420ED05D4818
:102A600085420BD0B5F1804F08D05B48854205D038
:102A70005A48854202D05A48854200D100E000BF42
:102A8000208850B92389A28861882846FFF7ABFFC8
:102A9000E1882846FFF79EFF25E0208804280AD118
:102AA0002389A28861882846FFF753FFE1882846DA
:102AB000FFF742FF17E0208808280AD12389A2885F
:102AC00061882846FFF7FBFEE1882846FFF7EEFE07
:102AD00009E02389A28861882846FFF7A6FEE188DD
:102AE0002846FFF795FE70BD2DE9F04105460C46DE
:102AF00000260127608808B9022600E00026A08889
:102B0000012801D1022700E001272088A0B92389EC
:102B1000A28861882846FFF766FFE1882846FFF70C
:102B200059FF23893A4631462846FFF712FFE188CC
:102B30002846FFF701FF13E02389A2886188284611
:102B4000FFF707FFE1882846FFF7F6FE23893A469C
:102B500031462846FFF747FFE1882846FFF73AFF4E
:102B6000BDE8F0810A884B881A438B881A43CB88CA
:102B70001A430B891A434B891A438B891A43A0F8CD
:102B8000442070474FF6FF71818000210180C18091
:102B90004180017270470021018041808180C180A5
:102BA000018141818181C181704700210180418083
:102BB000012181800021C1800181704700210180B5
:102BC00041808180C1800181418181817047000005
:102BD000002C014000340140000400400008004087
:102BE000000C004021B1028842F00102028004E0A2
:102BF00002884FF6FE731A400280704731B1B0F878
:102C0000442042F40042A0F8442005E0B0F84420FB
:102C1000C2F30E02A0F8442070471AB183890B4317
:102C2000838102E083898B4383817047818270476F
:102C300041EA0203A0F8483070471AB183890B4378
:102C4000838102E083898B438381704701894FF63A
:102C5000F8721140018170470A46002101894FF640
:102C60008F73194011430181704730B504460D46FA
:102C700029462046FFF7F0FF208940F00700208119
:102C800030BD2DE9F04104460D4616461F46602D25
:102C900006D13B46012231462046FFF75AFE05E0A9
:102CA0003B46012231462046FFF79DFE294620463D
:102CB000FFF7D2FF208940F007002081BDE8F081B6
:102CC00030B50C4600210189C9B24FF6FF7505EAFF
:102CD0000325154325432943018130BD2DE9F041EA
:102CE00005460E4617469846002443463A46314666
:102CF0002846FFF7E5FF2C894FF6F870044044F0B2
:102D000007044FF68F70044044F070042C81BDE836
:102D1000F081F0B504460D4616461F463B46324646
:102D200029462046FFF7CCFF208940F480402081CF
:102D3000F0BD0185828270470A46002101884FF666
:102D40008F731940114301807047F0B50C4615464A
:102D50001E460021002200230189028B038C4FF6BE
:102D6000F877394021434FF6FC473A4040F20117CB
:102D70003A434FF6DD773B404FF6FF7707EA0617F9
:102D80002F433B43018102830384F0BD0A460021A7
:102D9000018B4FF68F7319401143018370470A4628
:102DA0000021018B48F6FF7319404FF6FF7303EAC9
:102DB00002231943018370470A460021818B4FF695
:102DC0008F7319401143818370470A460021818B1C
:102DD00048F6FF7319404FF6FF7303EA02231943C5
:102DE0008183704721B1028842F08002028004E0B2
:102DF00002884FF67F731A400280704721B18288A3
:102E000042F00402828004E082884FF6FB731A408D
:102E10008280704721B1828842F00802828004E0FB
:102E200082884FF6F7731A408280704721B18288FA
:102E300042F00102828004E082884FF6FE731A405D
:102E4000828070470A460021018B4FF6F7731940C4
:102E50001143018370470A460021018B4FF2FF7333
:102E600019404FF6FF7303EA0223194301837047A9
:102E70000A460021818B4FF6F77319401143818375
:102E800070470A460021818B4FF2FF7319404FF6BD
:102E9000FF7303EA02231943818370470A46002126
:102EA000018B4FF6FB7319401143018370470A46AB
:102EB0000021018B4FF6FF3319404FF6FF7303EAF1
:102EC00002231943018370470A460021818B4FF684
:102ED000FB7319401143818370470A460021818B9F
:102EE0004FF6FF3319404FF6FF7303EA02231943ED
:102EF000818370470A460021018B4FF67F7319408A
:102F00001143018370470A460021018BC1F30E0172
:102F10004FF6FF7303EA02231943018370470A4601
:102F20000021818B4FF67F731940114381837047D5
:102F30000A460021818BC1F30E014FF6FF7303EAAD
:102F400002231943818370470A460021018C4FF602
:102F5000FD7319401143018470470A460021018C1A
:102F60004FF6F77319401143018470470A46002158
:102F7000018C4FF6DF7319404FF6FF7303EA02131B
:102F80001943018470470A460021018C4FF67F7374
:102F900019404FF6FF7303EA021319430184704787
:102FA0000A460021018C4FF6FF5319404FF6FF737C
:102FB00003EA02231943018470470A460021018C69
:102FC0004FF2FF7319404FF6FF7303EA02231943D0
:102FD000018470470A460021018C4DF6FF731940A9
:102FE0004FF6FF7303EA023319430184704730B58B
:102FF000002301248C40A3B2048C9C430484048CE1
:1030000002FA01F5ADB22C43048430BD30B5002383
:1030100004248C40A3B2048C9C430484048C02FAE4
:1030200001F5ADB22C43048430BD70B503460020D9
:1030300000241846183001258D40ACB21D8CA543E4
:103040001D8409B1082909D100EB6100056825F04C
:10305000700505600568154305600EE00D1FC5F39A
:103060004E052844056825F4E045056005684FF6DF
:10307000FF7606EA02263543056070BD21B102885D
:1030800042F00202028004E002884FF6FD731A400B
:103090000280704721B1028842F00402028004E0FD
:1030A00002884FF6FB731A400280704721B1828874
:1030B00042F08002828004E082884FF67F731A40DB
:1030C0008280704702884FF6F7731A4002800288A8
:1030D0000A430280704782884FF68F731A408280BD
:1030E00082880A438280704702894FF6F8731A403B
:1030F000028102890A430281704702894FF67F7379
:103100001A40028102890A43028170478184704714
:103110008185704781867047018770478187704736
:10312000A0F84010704702884FF6FF431A40028013
:1031300002880A43028070470146888E7047014624
:10314000088F70470146888F70470146B1F84000EC
:1031500070470146888C70470146088D70470246CB
:103160000020138A0B400BB1012000E000207047C3
:10317000CA430282704730B5024600200023002473
:10318000158A05EA0103958905EA010413B10CB11A
:10319000012000E0002030BDCA43028270470000D9
:1031A000002044490860091D0860091D0860091DC8
:1031B000086041483F4914310860704700213D498B
:1031C0008279002A3AD00A46126803689A430B466D
:1031D0001A600A1D126803689A430B1D1A6002796F
:1031E00011440A6803681A430A60324A08321268B6
:1031F00003689A432F4B08331A601A1D126803683C
:103200009A432C4B0C331A604279102A0ED11A1FA4
:10321000126803681A43274B08331A601A1D126894
:1032200003681A43234B0C331A600DE0214942799D
:1032300011440A6803681A430A6005E002791144E0
:103240000A6803689A430A607047002101600171AF
:103250000C214171002181717047164910310968B4
:103260000143144A10321160704701460020114A90
:10327000143212680A400AB1012000E000207047B1
:103280000C49143108607047014600200022094BA8
:103290001B6803EA0102074B14331B680B4013B190
:1032A0000AB1012000E00020704702491431086093
:1032B0007047000000040140FFFF0F0000F108010B
:1032C00041604FF0FF31816000F10801C160016190
:1032D00000210160704700210161704742684A6027
:1032E00093688B60936859609160086103685B1C08
:1032F0000360704710B502460B685C1C0CB910697E
:1033000007E002F1080000E04068446824689C423D
:10331000FAD944684C604C68A160886041600A61D9
:103320001468641C146010BD01460A69D1E90130BB
:103330009860D1E9010358605068884201D18868DB
:103340005060002008611068401E106010687047CF
:1033500070B505460E462C462CB940F21B12FAA158
:10336000FEA006F02BFA02F0C0FED4E90F1220688E
:1033700001FB020060600020A0632068A060E06B99
:10338000401E226C216800FB0210E060FF2084F8E0
:10339000440084F845009EB9206908B9012000E086
:1033A0000020A8B904F1100001F018FE80B14FF020
:1033B0008050EE490860BFF34F8FBFF36F8F07E077
:1033C00004F11000FFF77AFF04F12400FFF776FF05
:1033D00002F0AEFE012070BD2DE9F04106460D461B
:1033E00017469846069C0DB9246000E02760E66306
:1033F000256401212046FFF7ABFF84F850800020B0
:10340000A064BDE8F0812DE9F84305460E469046DC
:103410000DB1012000E0002028B94FF4C472CAA108
:10342000CEA006F0CBF90EB9002701E005FB06F7A8
:1034300007F1540002F065FF044644B104F1540959
:1034400043464A46314628460094FFF7C5FF2046CA
:10345000BDE8F8832DE9F04104460F4615464FF0CC
:103460000008A66B206C40B9206860BB606801F062
:1034700018FF80460020606025E07DB93946226C47
:10348000A06805F0A1F9216CA0680844A060D4E907
:103490000110884217D32068A06014E03946226CDE
:1034A000E06805F091F9216CE068401AE06021685D
:1034B000E068884203D2216C6068401AE060022D07
:1034C00001D106B1761E701CA0634046BDE8F081B4
:1034D0002DE9F3410D460098846C00272CB940F685
:1034E000CE1299A19DA006F069F9A06BE16B88420C
:1034F00001D2012000E0002028B940F6CF1292A1AD
:1035000096A006F05BF9A06BE16B88421BD294F9A0
:1035100045602A4669462046FFF79CFF0746701C17
:1035200060B9606A08B9012000E0002050B904F1D8
:10353000240001F053FD28B1012703E0701C40B2C4
:1035400084F8450000BF3846BDE8FC8170B50446EC
:1035500002F0CBFD94F945501AE0A06C38B100217F
:103560002046FFF7B5FF88B101F02BFE0EE0606A40
:1035700008B9012000E0002038B904F1240001F06E
:103580002DFD18B101F01DFE00E003E0681E45B2FC
:10359000002DE2DC00BFFF2084F8450002F0C8FDEA
:1035A00002F0A3FD94F9445010E0206908B901200D
:1035B00000E0002048B904F1100001F00FFD08B14F
:1035C00001F0FFFD681E45B200E001E0002DECDCDB
:1035D00000BFFF2084F8440002F0AAFD70BD70B562
:1035E000054602F082FDA86BE96B884201D10124F7
:1035F00000E0002402F09CFD204670BD2DE9FF4351
:1036000083B0064688461D464FF0000934462CB963
:1036100040F2D9224CA151A006F0D0F8B8F1000F29
:1036200001D1206C08B9012000E0002028B940F247
:10363000DA2245A149A006F0C1F8022D02D1E06BC3
:10364000012801D1012000E0002028B940F2DB224E
:103650003DA142A006F0B2F801F0C5FD08B90598F9
:1036600008B9012000E0002028B940F2DE2236A18E
:103670003AA006F0A3F800BF02F037FDA06BE16BA3
:10368000884201D3022D38D12A4641462046FFF711
:10369000E1FE0746A06C68B129462046FFF718FFF7
:1036A00028B34FF0805031490860BFF34F8FBFF30C
:1036B0006F8F1CE0606A08B9012000E0002068B943
:1036C00004F1240001F08AFC88B14FF080502749B2
:1036D0000860BFF34F8FBFF36F8F08E03FB14FF02B
:1036E000805022490860BFF34F8FBFF36F8F02F005
:1036F0001FFD012007B0BDE8F083059818B902F05E
:1037000017FD0020F6E7B9F1000F04D101A801F080
:10371000E9FC4FF0010902F00BFD00F07FFF02F021
:10372000E4FC94F94400401C10B9002084F84400E3
:1037300094F94500401C10B9002084F8450002F0BF
:10374000F7FC05A901A813E02E2E5C4672656552B0
:10375000544F535C71756575652E63004572726FC9
:10376000723A25732C25640D0A00000004ED00E078
:1037700001F0CAFCF8B92046FFF731FFA8B104F107
:103780001000059901F0CCFB2046FFF7DFFE00F0AA
:103790009AFE00287FF470AF4FF08050FA4908601D
:1037A000BFF34F8FBFF36F8F66E72046FFF7CEFE64
:1037B00000F089FE60E72046FFF7C8FE00F083FEB8
:1037C000002097E710B504464CB1002060602060EF
:1037D000E06000231A4619462046FFF70FFF10BD90
:1037E0002DE9F04104460126002722460021012050
:1037F000FFF709FE05462846FFF7E4FF2846BDE827
:10380000F08170B5064634463CB940F24122AFF231
:10381000C801AFF2B80005F0D1FF01F0E1FC61682A
:1038200088420CD1E068401EE060E06828B90023BF
:103830001A4619462046FFF7E1FE012500E0002563
:10384000284670BD70B5054602F04FFCA86B08B95C
:10385000012400E0002402F06BFC204670BD70B52E
:1038600004460D46206C70B1216CE0680844E060AD
:103870006168E068884201D32068E0602846226CD5
:10388000E16804F0A1FF70BD2DE9FF4782B0054655
:103890000E461F464FF0000A2C463CB940F2DC426F
:1038A000AFF25C11AFF24C1005F088FF0EB9206C3E
:1038B00008B9012000E0002038B940F2DD42AFF243
:1038C0007811AFF2681005F079FF01F08CFC08B9AF
:1038D000049808B9012000E0002038B94FF49C6238
:1038E000AFF29C11AFF28C1005F068FF00BF02F040
:1038F000FCFBD4F83890B9F1000F3DD0D4F80C801F
:1039000031462046FFF7ABFFDFB9A9F10100A06304
:10391000206810B901F0FFFD6060206908B901203E
:1039200000E0002010BB04F1100001F057FBE8B1EB
:103930004FF0805094490860BFF34F8FBFF36F8FF3
:1039400014E0C4F80C80606A08B9012000E000208F
:1039500060B904F1240001F041FB38B14FF0805010
:1039600089490860BFF34F8FBFF36F8F02F0E0FB10
:10397000012006B0BDE8F087049818B902F0D8FB22
:103980000020F6E7BAF1000F04D1684601F0AAFB67
:103990004FF0010A02F0CCFB00F040FE02F0A5FB64
:1039A00094F94400401C10B9002084F8440094F9B4
:1039B0004500401C10B9002084F8450002F0B8FB17
:1039C00004A9684601F0A0FB40BB2046FFF73AFF80
:1039D000F0B1206830B902F088FB606801F00FFC9C
:1039E00002F0A6FB04F12400049901F099FA2046A4
:1039F000FFF7ACFD00F067FD00287FF478AF4FF0D3
:103A0000805061490860BFF34F8FBFF36F8F6EE73F
:103A10002046FFF79BFD00F056FD68E72046FFF7C4
:103A200095FD00F050FD2046FFF70CFF0028EED07A
:103A300000209EE72DE9F04106460F4634463CB98A
:103A40004FF41E72AFF20031AFF2F02005F0B6FE77
:103A500001F0C6FB6168884204D1E068401CE06068
:103A600001250AE000233A4619462046FFF70CFFDD
:103A7000054615B1E068401CE0602846BDE8F081CD
:103A800070B505460E460DB1012000E0002038B9A2
:103A900040F2BD22AFF25031AFF2403005F08EFE61
:103AA000AE4201D8012000E0002038B940F2BE2229
:103AB000AFF26C31AFF25C3005F080FE02220021E3
:103AC0002846FFF7A0FC044604B1A663204670BD5B
:103AD0002DE9F05F80468A4615461E4644463CB9AD
:103AE00040F29F32AFF2A031AFF2903005F066FEA7
:103AF000BAF1000F01D1206C08B9012000E00020CC
:103B000038B94FF46872AFF2C031AFF2B03005F09F
:103B100055FE022E02D1E06B012801D1012000E008
:103B2000002038B940F2A132AFF2E431AFF2D43024
:103B300005F044FE02F02CFB00BF3021EFF31180B2
:103B400081F31188BFF34F8FBFF36F8F00BF07461C
:103B5000A06BE16B884201D3022E2ED194F945B0BF
:103B6000324651462046FFF775FC0BF10100E0B9E3
:103B7000A06C58B131462046FFF7AAFCD0B1CDB1B8
:103B80000120286016E0000004ED00E0606A08B93A
:103B9000012000E0002068B904F1240001F01EFAC1
:103BA00040B13DB10120286004E00BF1010040B2BA
:103BB00084F845004FF0010901E04FF0000900BF13
:103BC00087F3118800BF4846BDE8F09F2DE9F04714
:103BD00007460D463C463CB940F23C42AFF29841A4
:103BE000AFF2884005F0EAFD206C08B9012000E042
:103BF000002038B94FF48862AFF2B441AFF2A4406C
:103C000005F0DCFD206808B9606808B9012000E013
:103C1000002038B940F24542AFF2D441AFF2C4407F
:103C200005F0CCFD02F0B4FA00BF3021EFF31180B3
:103C300081F31188BFF34F8FBFF36F8F00BF06462C
:103C4000D4F83890E06B484529D994F945A009F19A
:103C50000100A0630AF10100C8B9A06C40B10021C5
:103C60002046FFF735FCB8B1B5B10120286013E05C
:103C7000606A08B9012000E0002068B904F124005E
:103C800001F0ACF940B13DB10120286004E00AF137
:103C9000010040B284F845004FF0010801E04FF008
:103CA000000800BF86F3118800BF4046BDE8F087DA
:103CB0002DE9F05F06468946174634463CB94FF475
:103CC000B462AFF27C51AFF26C5005F077FDB9F100
:103CD000000F01D1206C08B9012000E0002038B9A4
:103CE00040F2A152AFF2A051AFF2905005F066FD44
:103CF00002F04EFA00BF3021EFF3118081F31188FA
:103D0000BFF34F8FBFF36F8F00BF0546D4F838A0C5
:103D1000BAF1000F22D094F944B049462046FFF78B
:103D20009EFDAAF10100A0630BF1010070B92069AA
:103D300008B9012000E0002068B904F1100001F08A
:103D40004DF940B13FB10120386004E00BF10100B2
:103D500040B284F844004FF0010801E04FF0000841
:103D600000BF85F3118800BF4046BDE8F09F2DE9F4
:103D7000F0470646884634463CB940F2FC52AFF262
:103D80003861AFF2286005F019FDB8F1000F01D1DC
:103D9000206C08B9012000E0002038B940F2FD5243
:103DA000AFF25C61AFF24C6005F008FD206C08B129
:103DB000012000E0002038B940F2FE52AFF27861F5
:103DC000AFF2686005F0FAFC02F0E2F900BF3021C2
:103DD000EFF3118081F31188BFF34F8FBFF36F8F23
:103DE00000BF0546A06B48B1D4F80C904146204670
:103DF000FFF735FDC4F80C90012700E0002700BF55
:103E000085F3118800BF3846BDE8F08770B50446D9
:103E10003CB940F22F62AFF2D061AFF2C06005F062
:103E2000CDFC02F062F9A56B02F082F9284670BD64
:103E300070B5044625463DB940F24162AFF2F861E3
:103E4000AFF2E86005F0BAFC02F04FF9D5E90E10C8
:103E5000461A02F06DF9304670BD70B504463CB9A3
:103E600040F25162AFF22071AFF2107005F0A6FC83
:103E7000A56B284670BD014600200EE0764A02EB95
:103E8000C00252688A4207D10022734B43F83020A7
:103E900003EBC0035A6002E0401C0828EED300BFC9
:103EA000704770B5044625463DB940F25D62AFF2F9
:103EB0006871AFF2587005F081FC2846FFF7DBFF10
:103EC000284602F0A1FA70BD0146C86C7047C16473
:103ED0007047014691F85000704770B505463DB9EE
:103EE00040F29372AFF2A071AFF2907005F066FCF1
:103EF000A86B08B9012400E00024204670BD70B50D
:103F000004463CB940F2BA72AFF2C471AFF2B47079
:103F100005F054FCA06BE16B884201D1012500E063
:103F20000025284670BD024600200BE04A4B53F89E
:103F3000303033B9484B43F8301003EBC0035A60BC
:103F400002E0401C0828F1D300BF70470246002061
:103F500000210AE0404B03EBC1035B68934203D1AD
:103F60003D4B53F8310002E0491C0829F2D300BF51
:103F700070472DE9F04105460E4617462C4602F0E3
:103F8000B4F894F94400401C10B9002084F84400AF
:103F900094F94500401C10B9002084F8450002F057
:103FA000C7F8A06B28B93A46314604F1240000F066
:103FB000FAFF2046FFF7CAFABDE8F08170B5044663
:103FC000002204212046FFF71EFA0546284670BD50
:103FD00070B504460E4602F088F8A06C08B10025C2
:103FE00005E0A06B08B1002501E0A664012502F000
:103FF0009FF8284670BD2DE9F04105460F462E4634
:10400000B06CB84201D000240AE0B06B08B10024C3
:1040100006E002F06AF80020B06402F089F801249A
:104020002046BDE8F08138B505460C4600200090DA
:104030000023224669462846FFF726FC009838BD33
:1040400038B5044600200090002269462046FFF75C
:104050002FFE009838BD00003807002010B500245E
:1040600007E004EB8401F54A02EB8100FFF726F933
:10407000641C202CF5D3F248FFF720F9F148FFF734
:104080001DF9F148FFF71AF9F048FFF717F9F04862
:10409000FFF714F9EA48EF490860EA48EE4908607A
:1040A00010BD10B5044602F020F8EC480068401C32
:1040B000EA490860EA48006840B9E94804600846EF
:1040C000006801280DD1FFF7C9FF0AE0E548006844
:1040D00038B9E3480068C06AE16A884201D8E0481C
:1040E0000460E1480068401CDF4908600846006839
:1040F000A06494F82C1001208840DC49096808432A
:10410000DA490860E16A01EB8101CC4A02EB8100E7
:10411000211DFFF7E3F802F00BF8D248006868B100
:10412000CF480068C06AE16A884207D24FF08050E9
:10413000CF490860BFF34F8FBFF36F8F10BD2DE9DC
:10414000F05F82460F4690469B460A9E0C9C4FEAC3
:104150008801A522206B04F049FBA8F10100216B26
:1041600001EB800929F0070909F0070008B90120CF
:1041700000E0002028B940F22B32BEA1C2A005F019
:104180001DFB002507E0795D04F134004155785DA1
:1041900000B902E06D1C142DF5D300BF00214720AB
:1041A0000155202E00D31F26E6622665002060659B
:1041B000201DFFF790F804F11800FFF78CF8246138
:1041C000C6F12000A06164620020A065E06584F86B
:1041D00060005A465146484601F014FF20600B9893
:1041E00008B10B980460BDE8F09F2DE9FF4F85B042
:1041F000804689461746DDE912ABB80002F081F827
:10420000064656B1642002F07CF804460CB12663E1
:1042100004E0304602F0F8F800E000247CB1002011
:10422000CDE900ABCDE902403A4649464046089BFD
:10423000FFF785FF2046FFF734FF012501E04FF02F
:10424000FF35284609B0BDE8F08F82490968096842
:1042500009B9012100E0002121B14FF0FF318E4A60
:10426000116006E07B490968C968C8688A4A4168E4
:104270001160704710B50446206B02F0C5F8204667
:1042800002F0C2F810BD70B5054601F02EFF15B959
:104290007348006800E028460446201DFFF744F8F4
:1042A00078B9E06A00EB8000644951F8200040B919
:1042B00094F82C10012088406C49096881436B48B0
:1042C0000160A06A18B104F11800FFF72DF86648E4
:1042D0000068401C6449086061480068844209D154
:1042E000211D5A48FEF7FAFF6C480068401C6B49D4
:1042F000086009E059480068401E58490860204697
:10430000FFF7B8FFFFF7A1FF01F012FF5548006863
:10431000C0B153480068844214D16148006808B9AC
:10432000012000E0002028B940F2654251A156A0CA
:1043300005F044FA4FF080504D490860BFF34F8FAD
:10434000BFF36F8F70BD2DE9F0414FF00008544866
:104350000068002871D153480068451C5148056029
:10436000EDB93C480068006808B9012000E0002071
:1043700028B940F6D9123FA143A005F01FFA3548ED
:104380000768354800683349086033480760464885
:104390000068401C44490860FFF757FF00BF3E48D3
:1043A000006885423CD300BF2A480068006808B90D
:1043B000012000E0002020B14FF0FF3036490860B6
:1043C0002DE024480068C068C4686668B54202D21F
:1043D0003148066023E0201DFEF7A6FFA06A18B151
:1043E00004F11800FEF7A0FF94F82C10012088407B
:1043F0001E49096808431D490860E16A01EB810113
:104400000E4A02EB8100211DFEF768FF1449E06AA5
:104410000968C96A8842C7D34FF00108C4E700BFE2
:104420000F480068C06A00EB8000044951F8200082
:10443000012801D94FF001083DE037E0780700205E
:10444000F80900200C0A0020200A0020340A00206D
:10445000480A0020840000208800002090000020EE
:10446000800000209C000020AC000020980000206C
:1044700004ED00E02E2E5C4672656552544F535C8D
:104480007461736B732E63004572726F723A257399
:104490002C25640D0A000000B00000208C000020D4
:1044A000B800002094000020A8000020F848006810
:1044B000401CF7490860F748006808B14FF0010850
:1044C0004046BDE8F08170B500240026F24800683F
:1044D00038B94FF4FD62AFF26401AFF2540005F059
:1044E0006DF901F002FEEC480068401EEA490860E0
:1044F0000846006800284FD1E848006800284BD0E3
:1045000024E0E748C068C46804F11800FEF70CFF17
:10451000201DFEF709FF94F82C1001208840E14986
:1045200009680843DF490860E16A01EB8101DE4A5E
:1045300002EB8100211DFEF7D1FEDC49E06A09682B
:10454000C96A884202D30120D2490860D448006871
:1045500008B9012000E000200028D2D00CB1FFF7FC
:1045600074FECB48056865B100BFFFF7ECFE10B1E3
:104570000120C84908606D1E002DF6D10020C449F5
:104580000860C448006838B101263007C84908608F
:10459000BFF34F8FBFF36F8F01F0CAFD304670BD80
:1045A0002DE9F04105460E46C2480768BF4800683D
:1045B000001DFEF7B9FE50B9BC48006890F82C10F9
:1045C00001208840B74909688143B6480160681CEA
:1045D00038B936B1B5480168091DB748FEF77EFE07
:1045E0001AE07C19B14800684460BC4207D2AF4869
:1045F0000168091DB1480068FEF77CFE0CE0AB487D
:104600000168091DAE480068FEF774FEAD480068F9
:10461000844201D2AB480460BDE8F0819E48006846
:10462000401C9D49086070472DE9F04704460F463D
:104630004FF000093CB940F27942AFF2C811AFF235
:10464000B81005F0BBF80FB1012000E0002038B928
:1046500040F27A42AFF2E411AFF2D41005F0AEF8B6
:104660008D48006808B9012000E0002038B940F208
:104670007B42AFF20021AFF2F01005F09FF8FFF798
:10468000CDFF8C4806682068C5192068B04207D95C
:104690002068A8420BD9B54209D94FF0010906E0BC
:1046A0002068A84201D8B54201D94FF00109256020
:1046B000B9F1000F03D0A81B0021FFF771FFFFF72E
:1046C00002FF8046B8F1000F07D14FF080507849C3
:1046D0000860BFF34F8FBFF36F8FBDE8F08770B5F1
:1046E00004460025BCB16C48006808B9012000E010
:1046F000002038B940F2CF42AFF28821AFF27820E3
:1047000005F05CF8FFF78AFF00212046FFF748FF1D
:10471000FFF7D9FE05463DB94FF080506449086067
:10472000BFF34F8FBFF36F8F70BD2DE9F041074688
:104730003E463EB940F2FB42AFF2C821AFF2B8208C
:1047400005F03CF859480068864201D100241EE07B
:1047500001F0CBFC756901F0EBFC5948006885421B
:1047600003D056480068854201D102240FE0524828
:10477000854205D1B06A08B9032408E0022406E0A6
:104780005148854200D00DB9042400E001242046A0
:10479000BDE8F08170B5044601F0A7FC14B94348A8
:1047A000006800E020460646F56A01F0C1FC284694
:1047B00070BD2DE9F041054601F0EAFC00BF302153
:1047C000EFF3118081F31188BFF34F8FBFF36F8F29
:1047D00000BF044615B93548006800E02846074682
:1047E000FE6A00BF84F3118800BF3046BDE8F08147
:1047F0002DE9F04780460D464FF00009202D01D2EB
:10480000012000E0002038B94FF4B062AFF29C31D3
:10481000AFF28C3004F0D2FF202D00D31F2501F021
:1048200064FCB8F1000F02D12048006800E0404667
:104830000446266DAE4274D0B5420BD91B480068C1
:1048400084420DD019480068C06AA84208D84FF0C9
:10485000010905E015480068844201D14FF00109C3
:10486000E76AE16A206D884200D1E5622565A069AA
:1048700000F0004010B9C5F12000A06107EB8701EE
:10488000094A02EB8101606988421FD101201EE0C4
:10489000A0000020A4000020B8000020900000200C
:1048A000200A0020980000207807002080000020C7
:1048B00004ED00E094000020480A00208800002059
:1048C00084000020B0000020340A00200020E0B165
:1048D000201DFEF729FD30B90120B840F7490968CD
:1048E0008143F648016094F82C1001208840F34978
:1048F00009680843F1490860E16A01EB8101F04A67
:1049000002EB8100211DFEF7E9FCB9F1000F07D091
:104910004FF08050EB490860BFF34F8FBFF36F8FAC
:1049200000BF01F005FCBDE8F08710B5E64800685F
:1049300018B10120E54908604AE00020E349086019
:10494000E34908684968E349086008460068E249A5
:10495000096888420BD9E149096801F15800896D5D
:10496000DC4A1268DC4B1B68D21A11440160D9483A
:104970000068D9490860D1480068B0FA80F0C0F1F9
:104980001F0404EB8400CE4951F8200008B1012037
:1049900000E0002038B940F6F622AFF22851AFF21D
:1049A000185004F00BFF04EB8401C54A02EB8100B0
:1049B00041684968416000F1080142688A4202D1B9
:1049C0004168496841604168C968C44A116000BFD4
:1049D00010BD70B5054601F088FB15B9BF480068E9
:1049E00000E028460446201DFEF79EFC78B9E06AE8
:1049F00000EB8000B24951F8200040B994F82C1027
:104A000001208840AD4909688143AC480160A06A33
:104A100018B104F11800FEF787FC211DB048FEF71D
:104A20005DFC01F085FBAF48006828B101F05DFB3B
:104A3000FFF70BFC01F07CFBA8480068844226D1FC
:104A4000A8480068B8B1A048006808B9012000E093
:104A5000002038B940F25762AFF2E851AFF2D850B7
:104A600004F0ACFE4FF0805096490860BFF34F8FC2
:104A7000BFF36F8F0BE09A4800689B490968884232
:104A800003D100209549086001E0FFF74EFF70BD9B
:104A900070B5054600262C463DB940F28162AFF262
:104AA0002C61AFF21C6004F089FE8D496069884278
:104AB00001D1012000E0002070B18C49A06A884239
:104AC00001D1012000E0002030B9A06A08B901201E
:104AD00000E0002000B10126304670BD70B50546EB
:104AE0002C463DB940F2AB62AFF27861AFF268603C
:104AF00004F064FE74B37948006884422AD001F05F
:104B0000F4FA2046FFF7C4FF10B3201DFEF70CFC9B
:104B100094F82C10012088406849096808436749C7
:104B20000860E16A01EB8101654A02EB8100211D09
:104B3000FEF7D4FB6949E06A0968C96A884207D36D
:104B40004FF080505F490860BFF34F8FBFF36F8F06
:104B500001F0EEFA70BD2DE9F0410646002734461B
:104B60003EB940F2E262AFF2F461AFF2E46004F009
:104B700025FE01F00DFB00BF3021EFF3118081F322
:104B80001188BFF34F8FBFF36F8F00BF05462046DC
:104B9000FFF77EFF20B34C480068E0B94F49E06A58
:104BA0000968C96A884200D30127201DFEF7BCFBB3
:104BB00094F82C10012088404049096808433F4977
:104BC0000860E16A01EB81013D4A02EB8100211D91
:104BD000FEF784FB04E004F118014448FEF77EFB75
:104BE00000BF85F3118800BF3846BDE8F08170B57D
:104BF00023E0FFF713FD3E48006808B9012000E0FC
:104C000000200546FFF75FFCBDB901F06EFA384899
:104C1000C068C468201DFEF787FB33480068401E4B
:104C20003149086033480068401E3249086001F08D
:104C30007FFA2046FFF71EFB00BF2E4800680028C1
:104C4000D7D170BD00BFFFF7D2FF1D480068012813
:104C5000F9D94FF080501B490860BFF34F8FBFF365
:104C60006F8FF0E71CB5244800210B465022CDE998
:104C7000001022A12348FFF7B8FA0446012C02D104
:104C800001F066F80446012C42D100BF302080F3C9
:104C90001188BFF34F8FBFF36F8F00BF4FF0FF300E
:104CA0001949086001200F49086000201749086071
:104CB000FCF717F901F0C2F938E000009800002075
:104CC0007807002004ED00E0B8000020A4000020D8
:104CD00048000020C0000020BC0000208000002010
:104CE000480A00209C00002090000020200A00209C
:104CF000340A00208C000020B400002049444C45B8
:104D000000000000454C0008B00000209400002086
:104D1000601C08B1012000E0002038B940F2847224
:104D2000AFF6B001AFF6A00004F048FD1CBD10B511
:104D300000BF302080F31188BFF34F8FBFF36F8F18
:104D400000BF0020FE49086001F0BEF910BDFD491A
:104D50000868704770B501F01BFA0025F94804682F
:104D6000204670BDF8480068704770B5044614B915
:104D7000F648006800E0204605463DB940F68C0242
:104D8000AFF61011AFF6001004F018FD05F1340075
:104D900070BD0246002101E0521C491C1078A52874
:104DA000FAD0890888B270472DE9F04107460C46D1
:104DB00090461E4617B9E548006800E038460546AB
:104DC000256005F134006060E86A2061286BE061CD
:104DD000A86CA060207B032807D1FFF71FFCA86AFE
:104DE00008B102202073FFF76EFB286D6061A86D8B
:104DF000A061052E01D0267303E03846FFF795FC2D
:104E00002073B8F1000F04D0286BFFF7C2FF208495
:104E100001E000202084BDE8F0812DE9F04707463D
:104E20000C4690460026206848B3204641684968F1
:104E3000416000F1080142688A4202D14168496834
:104E400041604168D1F80C9000BF20464168496834
:104E5000416000F1080142688A4202D14168496814
:104E600041604168CD6806EBC60007EB8001434610
:104E700001222846FFF798FF761C4D45E5D13046C4
:104E8000BDE8F0872DE9F041054688461646002426
:104E90002027FFF7C3FBAC48006880453BD300BF29
:104EA0007F1E07EB8702AA4B03EB820104EBC402CF
:104EB00005EB82000122FFF7B0FF0444002FEFD181
:104EC00004EBC40105EB81000222A2490968FFF747
:104ED000A4FF044404EBC40105EB810002229E49B7
:104EE0000968FFF79AFF044404EBC40105EB810055
:104EF00004229A49FFF791FF044404EBC40105EB37
:104F0000810003229649FFF788FF04441EB19549AA
:104F1000086849683060FFF7D6FA2046BDE8F0819E
:104F200070B504460D463CB940F60632AFF6BC21DA
:104F3000AFF6AC2004F042FC8448016818312046EA
:104F4000FEF7D8F901212846FFF72AFB70BD70B59E
:104F500004460D4616463CB940F61732AFF6EC2132
:104F6000AFF6DC2004F02AFC7F48006808B101207D
:104F700000E0002038B940F61B32AFF60831AFF63A
:104F8000F82004F01BFC45F0004070490968886176
:104F90006E48016818312046FEF7A0F9012130461D
:104FA000FFF7FEFA70BD70B505460E4614463DB9D2
:104FB00040F63132AFF64431AFF6343004F0FEFB48
:104FC0006248016818312846FEF788F90CB14FF0A5
:104FD000FF3621463046FFF7E3FA70BD70B506464E
:104FE000F068C4683CB940F66132AFF67831AFF68C
:104FF000683004F0E3FB04F11800FEF795F95A4815
:105000000068A8B9201DFEF78FF994F82C10012034
:10501000884056490968084354490860E16A01EB31
:1050200081014B4A02EB8100211DFEF757F904E094
:1050300004F118014E48FEF751F94449E06A096845
:10504000C96A884204D9012501204A49086000E064
:105050000025284670BD2DE9F04105460F4642481F
:10506000006808B1012000E0002038B940F699320C
:10507000AFF60041AFF6F03004F0A0FB47F000407F
:105080002860EC683CB940F6A132AFF61841AFF6A3
:10509000084004F093FB2846FEF746F9201DFEF772
:1050A00043F994F82C1001208840304909680843DE
:1050B0002E490860E16A01EB8101254A02EB81007B
:1050C000211DFEF70BF92149E06A0968C96A884287
:1050D00004D9012601202749086000E00026304657
:1050E000BDE8F08110B504463CB940F6C132AFF6D8
:1050F0007C41AFF66C4004F061FB1F480068206003
:1051000010480068606010BD2DE9F04104460D466E
:105110003CB940F6CB32AFF6A441AFF6944004F070
:105120004DFB3DB940F6CC32AFF6B841AFF6A840E2
:1051300004F044FB00F0D9FF0248076828681DE02E
:105140009C0000209400002090000020800000209F
:10515000780700208400002088000020340A002006
:10516000480A002048000020B800002098000020D5
:10517000200A0020A4000020A8000020401C08B93C
:10518000002619E0FE4920680968884204D060685A
:10519000B84201D801260FE06068381A29688842B1
:1051A00009D228686168791A401A28602046FFF7FA
:1051B00099FF002600E0012600F0BAFF3046BDE866
:1051C000F0810120EF4908607047014611B10A469D
:1051D000D06C00E00020704708B10246D1647047EF
:1051E000E94908687047E949096809B9012005E0FB
:1051F000E749096809B9022000E00020704770B54E
:1052000005462C46002D4BD0DF49E06A0968C96A83
:10521000884245D2A06900F0004028B9DA48006809
:10522000C06AC0F12000A061E16A01EB8101D94AA6
:1052300002EB81016069884201D1012000E0002079
:1052400050B3201DFEF770F878B9E06A00EB8000DB
:10525000D04951F8200040B994F82C100120884022
:10526000CD4909688143CC480160C7480068C06ADD
:10527000E06294F82C1001208840C749096808436F
:10528000C5490860E16A01EB8101C24A02EB810075
:10529000211DFEF723F803E0BB480068C06AE06206
:1052A00070BD70B505462C460026002D4FD0B6487F
:1052B0000068844201D1012000E0002038B940F6A6
:1052C000C762AFF65061AFF6406004F077FA606DE8
:1052D00038B940F6C962AFF66461AFF6546004F0C5
:1052E0006DFA606D401E6065216DE06A88422ED0C7
:1052F000606D60BB201DFEF717F878B9E06A00EB1F
:105300008000A44951F8200040B994F82C100120E5
:105310008840A149096881439F480160206DE0628F
:10532000E06AC0F12000A06194F82C1001208840B0
:1053300099490968084398490860E16A01EB8101CD
:10534000944A02EB8100211DFDF7C8FF012630467B
:1053500070BD70B505460E463146284603F07AFA10
:10536000284603F055FA044602E020202855641C24
:10537000132CFAD300202855281970BD7FB5054697
:10538000002028708548006803908449096801EB73
:10539000C101880000F0B5FF0446002C53D0002264
:1053A00020460399FFF76EFD03900020029043E032
:1053B000029800EBC00004EB8000007B012806D0BF
:1053C000022806D0032806D0042808D105E052267A
:1053D00007E0422605E0532603E0442601E00026CC
:1053E00000BF00BF029800EBC00004EB80004168E2
:1053F0002846FFF7AEFF0546029800EBC00004EB1D
:1054000080008068029901EBC10104EB8101098CE5
:10541000CDE90010029800EBC00004EB800032469A
:105420005FA10369284604F0D9F9284603F0F0F992
:1054300005440298401C0290DDE902018842B7D37E
:10544000204600F0E1FF7FBDFEB505460020287034
:105450005248006802905149096801EBC101880077
:1054600000F04FFF0446002C48D06A4620460299BF
:10547000FFF708FD029064210098B0FBF1F0009066
:105480000098002837D00020019030E0019800EB10
:10549000C00004EB800080690099B0FBF1F6019830
:1054A00000EBC00004EB800041682846FFF751FF85
:1054B00005465EB1019800EBC00004EB8000334666
:1054C0003BA18269284604F089F909E0019800EBC4
:1054D000C00004EB800039A18269284604F07EF9FF
:1054E000284603F095F905440198401C0190DDE938
:1054F00001018842CAD3204600F086FFFEBD224942
:105500000968886920490968C96AC1F120011E4AF1
:105510001268916170471C48006830B11A490968E7
:1055200001F15400496D491C01601748006870473B
:1055300070B506460D4600F0D8FD13480068C06DF2
:1055400088B901201049096881F860005DB1012126
:105550002846FFF725F84FF080501B490860BFF33D
:105560004F8FBFF36F8F00F0E3FD00F0BEFD0648E4
:105570000068C46D54B356B300200349096827E09E
:10558000A8000020A4000020800000209C00002033
:10559000B80000207807002098000020900000202C
:1055A0000925630925750925750925750D0A00006A
:1055B0000925750909257525250D0A00092575098F
:1055C000093C3125250D0A0004ED00E006E001E06C
:1055D000C86503E0601EE8490968C8650020E6491F
:1055E000096881F8600000F0A3FD204670BD2DE938
:1055F000F0410746884614461D4600F076FDDE4819
:10560000006890F86000022818D0DB49096801F1B1
:105610005C00C96DB94301600120D749096881F870
:1056200060005DB101212846FEF7BAFF4FF08050BF
:10563000D2490860BFF34F8FBFF36F8F00F078FD42
:1056400000F053FD1CB1CC480068C06D2060CA4812
:10565000006890F86000012801D1002608E0C649E2
:10566000096801F15C00C96D21EA080101600126A9
:105670000020C149096881F8600000F059FD3046FA
:10568000BDE8F0812DE9F04706460D4617469846DD
:105690004FF0010A36B941F2FD02B94901F1140097
:1056A00004F08CF8344600F020FDB8F1000F02D071
:1056B000E06DC8F8000094F86090022084F8600063
:1056C000052F17D2DFE807F01503070B0D00E06D7B
:1056D0002843E0650EE0E06D401CE0650AE0E5650A
:1056E00008E0B9F1020F01D0E56501E04FF0000AD2
:1056F00000E000BF00BFB9F1010F2FD1201DFDF761
:1057000013FE94F82C10012088409E490968084334
:105710009C490860E16A01EB81019B4A02EB810030
:10572000211DFDF7DBFDA06A08B9012000E0002083
:1057300030B941F23512924901F1140004F03EF8FB
:105740008D49E06A0968C96A884207D94FF08050DC
:105750008A490860BFF34F8FBFF36F8F00F0E8FCFA
:105760005046BDE8F0872DE9F84F07460E469046B3
:105770009946DDF828B00120009037B941F268124F
:105780007F4901F1140004F019F800F001FD3C46D6
:1057900000BF3021EFF3118081F31188BFF34F8FE9
:1057A000BFF36F8F00BF0546B9F1000F02D0E06D67
:1057B000C9F8000094F860A0022084F86000B8F1F5
:1057C000050F17D2DFE808F01503070B0D00E06D99
:1057D0003043E0650EE0E06D401CE0650AE0E66500
:1057E00008E0BAF1020F01D0E66501E00020009068
:1057F00000E000BF00BFBAF1010F3AD1A06A08B9BA
:10580000012000E0002030B941F2AF125C4901F103
:10581000140003F0D3FF5D480068A8B9201DFDF710
:1058200083FD94F82C1001208840564909680843EC
:1058300054490860E16A01EB8101534A02EB81009F
:10584000211DFDF74BFD04E004F118015048FDF760
:1058500045FD4949E06A0968C96A884209D9BBF12E
:10586000000F03D00120CBF8000002E001204949DD
:10587000086000BF85F3118800BF0098BDE8F88F6D
:105880002DE9F04105460F4635B941F2E3123C4996
:1058900001F1140003F092FF00F07AFC2C4600BFE7
:1058A0003021EFF3118081F31188BFF34F8FBFF3E5
:1058B0006F8F00BF064694F86080022084F8600075
:1058C000E06D401CE065B8F1010F37D1A06A08B95E
:1058D000012000E0002030B941F20922284901F1FD
:1058E000140003F06BFF29480068A8B9201DFDF7DC
:1058F0001BFD94F82C1001208840224909680843B8
:1059000020490860E16A01EB81011F4A02EB810036
:10591000211DFDF7E3FC04E004F118011C48FDF72C
:10592000DDFC1549E06A0968C96A884206D917B1E1
:105930000120386002E001201649086000BF86F3AC
:10594000118800BFBDE8F08170B5054615B90A4859
:10595000006800E02846064600F0C7FB96F86000A5
:10596000022804D1002086F86000012400E0002411
:1059700000F0DEFB204670BD8000002004ED00E05A
:10598000744400089800002078070020B800002028
:10599000200A0020A40000202DE9F04104460D4615
:1059A00016461F464FF0000865602461B5420CD8CA
:1059B000F01BA169884202D34FF0010811E0211DBC
:1059C000F6480068FDF796FC0BE0BE4204D2BD42EB
:1059D00002D34FF0010804E0211DF1480068FDF7F3
:1059E00089FC4046BDE8F0812DE9FF4704460D469D
:1059F00016461F46DDF830804FF000092CB94FF4F1
:105A0000D372E8A1EDA003F0D9FEF048006810B30E
:105A1000009501960294062D15DAFFF7E4FB0228A3
:105A200008D1002342466946E8480068FDF7E6FDD4
:105A3000814610E000231A466946E4480068FDF7F5
:105A4000DDFD814607E000233A466946DF480068ED
:105A5000FEF73EF88146484604B0BDE8F0872DE9E0
:105A6000F8432DE0CE480068C0680568CC4800685F
:105A7000C068C468201DFDF757FC2046616A88474E
:105A8000E06901281CD1A0694619AE4207D96660B9
:105A90002461211DC2480068FDF72CFC10E00020A5
:105AA00003462A46014600902046FFF79DFF074621
:105AB0002FB940F29232BBA1C0A003F07FFE00BF1D
:105AC000B7480068006808B9012000E000200028FD
:105AD000C8D0B348D0F80080B0480068B04908602A
