:020000040800F2
:1000000030B90020C1340008590400085B0400081E
:100010005F04000863040008670400080000000093
:100020000000000000000000000000004501000882
:100030006B04000800000000890100086D2E000814
:10004000DB340008DB340008DB340008DB34000854
:10005000DB340008DB340008DB34000883140008BC
:10006000DB340008DB340008DB340008DB34000834
:10007000DB340008DB340008DB340008DB34000824
:10008000DB340008DB340008DB340008DB34000814
:10009000DB340008DB340008DB340008A51400085A
:1000A000DB340008DB340008DB340008DB340008F4
:1000B000DB3400087B150008DB340008DB34000863
:1000C000DB340008DB340008DB340008DB340008D4
:1000D000DB3400080B3200080D330008DB34000865
:1000E000DB340008DB340008DB340008DB340008B4
:1000F000DB340008DB340008DB340008DB340008A4
:10010000DB340008DB340008DB340008DB34000893
:10011000CF330008DB340008DB340008DB34000890
:10012000DB340008DB340008DB340008DB34000873
:10013000DFF80CD00BF07CF9004800477B03000887
:1001400030B90020224B19680868B0E8F00F80F33E
:100150000988BFF36F8F4FF0000080F311884EF0D5
:100160000D0E70470000000006480068006880F32C
:10017000088862B661B6BFF34F8FBFF36F8F00DFA1
:1001800000BF00BF08ED00E0EFF30980BFF36F8F01
:100190000F4B1A6820E9F00F106008B54FF05000BF
:1001A00080F31188BFF34F8FBFF36F8F06F0E5FB2D
:1001B0004FF0000080F31188BDE808401968086816
:1001C000B0E8F00F80F30988BFF36F8F704700BF6E
:1001D00044040020EFF305807047000008B50CE0F0
:1001E0004FF0FF336A461946002007F028FA04460C
:1001F000012C02D1009800F05AFEF1E708B50CE09E
:100200004FF0FF336A461946002007F018FA0446FB
:10021000012C02D1009800F02EFFF1E73AE04FF0F8
:10022000FF31012007F0ACF90446012C2FD16A48B8
:10023000008800F4004088B167480088C0F30D05CD
:100240002A466649012000F087FD002062490880A7
:1002500062020021614808F084F900BF604800880C
:1002600000F4004090B15E480088C0F30D052A46B6
:100270005C49022000F070FD4FF4007200215948E3
:1002800008F06FF900205649088000BF00BF0A201F
:1002900006F04DFAC3E710B504465348007801282C
:1002A0000AD10023012240F2F7115048006807F0FC
:1002B00011FA00204C49087000F0CFF900F042FA22
:1002C00000F015FA4A48006808B9012000E0002053
:1002D0004749086010BD7CB5054602F048FF01F0B3
:1002E00027F800F076FA01F0A3F8002008F043F9AF
:1002F00000F06FFA07F023FFAFF2650001231A4602
:100300004FF4FA7100903BA007F0B9FD3D49086039
:1003100006F045FD044600200346224601210090D8
:100320003848006807F088FB3748022100230A029A
:10033000CDE9001035A1AFF21B1005F07EFF2B4870
:1003400004210023CA01CDE9001033A1AFF25310FC
:1003500005F073FF3548052100234FF40072CDE905
:10036000001033A1AFF28B1005F067FF354800682D
:1003700005F0B1FF07F006FF7CBD1CB54FF44070DF
:1003800003F030FC02F07AFD2E48012100234A02DE
:10039000CDE900102CA1AFF2C10005F04EFF06F030
:1003A00089FC00201CBD08B52A48006870B906F019
:1003B000F6FC044600200346224601210090114825
:1003C000006807F039FB01202249086002E00A209A
:1003D00006F0ADF9FBE700001E040020C80600206F
:1003E00024040020C808002048000020100000203D
:1003F000880123424175746F52656C6F6164546962
:100400006D65720018000020040000207561727490
:100410005F7461736B0000006D6573736167657075
:10042000726F636573735F7461736B0014000020F7
:100430006576656E7470726F636573735F746173F4
:100440006B0000000000002073746172745F7461BF
:10045000736B000008000020704700BFFEE700BF7C
:10046000FEE700BFFEE700BFFEE770470CB50020C7
:10047000019000906C48006840F480306A49086040
:1004800000BF6948006800F4003000900198401CEB
:100490000190009818B90198B0F5A06FF1D16248A9
:1004A000006800F4003010B10120009001E000204D
:1004B00000900098012843D15C48006840F010008B
:1004C0005A4908600846006820F0030008600846A2
:1004D000006840F002000860534840685249486094
:1004E0000846406848600846406840F480604860BC
:1004F0000846406820F47C1048600846406840F494
:10050000E81048600846006840F08070086000BF4E
:100510004548006800F000700028F9D04248406863
:1005200020F00300404948600846406840F002005F
:10053000486000BF3C48406800F00C000828F9D132
:100540000CBD10B5FFF792FF10BD10B5364800681E
:1005500040F00100344908600846406834490840CA
:100560003149486008460068324908402E49086011
:100570000846006820F4802008600846406820F49F
:10058000FE0048604FF41F008860FFF7DAFF4FF06D
:1005900000602949086010BD10B50021002000222C
:1005A000214B5B6803F00C0121B1042906D0082916
:1005B00028D107E0214B224C236027E01F4B204C21
:1005C000236023E0184B5B6803F47010164B5B68E4
:1005D00003F48032022303EB904022B9194B4343CA
:1005E000174C23600DE0104B5B6803F4003323B11C
:1005F000144B4343124C236003E0104B4343104C15
:10060000236003E00D4B0E4C236000BF00BF064B80
:100610005B68C3F303130C4CE15C094B1B68CB40D4
:10062000074C236010BD0000001002400020024073
:100630000000FFF8FFFFF6FE08ED00E000127A0070
:100640001C00002000093D00200000200020FD4982
:1006500008700120FC490860704700B5F94800782F
:10066000012805D1F9480068401CF849086002E0FB
:100670000020F6490860F5480068142804D10020DD
:10068000F2490860FFF7E2FF00BD0120ED49087064
:10069000ED4908600020EE49C1F8A801704708B58F
:1006A0000121082003F03AFA4FF48060ADF8000011
:1006B00010208DF8030003208DF802006946E548FC
:1006C00002F070FF4FF48061E24803F018F84FF435
:1006D000967008BD70B502F01BF8044602F02FF8C2
:1006E000054614B90DB9012070BD0020FCE710B516
:1006F000D9480078012800D110BDD84800780128D9
:100700001ED1FFF7E7FF01281AD1D548007848B974
:100710000120D3490870002301220421D148006838
:1007200006F0D8FFD0480078012809D10020CE4932
:100730000870002301220521CA48006806F0CAFF9C
:1007400000BFD9E710B5C9480078012820D101F0D1
:100750000DF80446C648016820460AF0ADFC12D8E0
:1007600042F21071C34804F07BFBC348007878B9AB
:100770000120C1490870002301220221B948006804
:1007800006F0A8FF04E041F28831BA4804F068FBA3
:1007900010BD10B50020B54908704FF4E15142F288
:1007A000107000F0FFFE42F21071B24804F058FBE6
:1007B00010BD08B50121082003F0B0F90220ADF802
:1007C000000028208DF803006946A24802F0EAFEE6
:1007D00008BD10B54021A94803F01CFC4021A848E1
:1007E00003F018FCFFF7E5FF00F020FFFFF7D1FF53
:1007F00001F0F8FEFFF753FFA249086010BD4FF467
:10080000FC7070479F480068704710B501F01FFFEB
:10081000044614B94FF4967010BD4FF49870FBE77E
:1008200010B504460120914908709148046041F2D6
:100830008831904804F014FB4FF47A7005F077FF8C
:1008400010BD10B500208949087042F21071894826
:1008500004F006FB10BD2DE9F84F04460D46264670
:1008600009F04FFB00900022874B88A1009809F007
:10087000CEFA88A28DA1009809F0FCFA8CA28FA173
:10088000009809F0F7FA062E5BD2DFE806F05A036B
:10089000565758594DB909F054FB814607463A4618
:1008A00088A1009809F0C2F908E009F04AFB8146E6
:1008B00007463A4687A1009809F0B8F909F021FBEC
:1008C000834607463946484609F06CF905218548B4
:1008D00009F097FC07463A4683A1584609F0A6F965
:1008E00005218048143009F08CFC07463A467FA168
:1008F000584609F09BF905217A48283009F081FC17
:1009000007463A467AA1584609F090F905217548FC
:100910003C3009F076FC07463A4676A1584609F085
:1009200085F905216F48503009F06BFC07463A46BF
:1009300071A1584609F07AF904E003E002E001E011
:1009400000E000BF00BF009809F02FF88046404645
:1009500009F088FF824652464146012002F015FC0C
:1009600040460AF077FF009807F0A0FFBDE8F88F37
:1009700001203A49087070470120704701207047F4
:1009800001460120704770B50546002612E0554823
:1009900001F0ECFE044644B1002301224FF404713F
:1009A0005648006806F096FE06E000210120FFF799
:1009B00052FF761CAE42EAD300BF70BD2DE9F0476E
:1009C00006460D4605224EA1304607F0C0FD20B96F
:1009D00002224DA1284607F0BAFD07224BA130465E
:1009E00007F0B5FD50B9022247A1284607F0AFFD38
:1009F00010B9FFF74AFE01E0FFF728FE082245A1E3
:100A0000304607F0A4FDB8B928460BF0FBFB0746BB
:100A100088464348007858B9FFF7B0FF0446012CD8
:100A200006D1384641460AF02BFB8146FFF7F8FE17
:100A300001203B49087000BF0B223AA1304607F065
:100A400086FD75E030000020A8812142380000209A
:100A500000802142000C01403500002032000020BF
:100A60003300002014000020340000203700002054
:100A70003C0000200004004031000020003801400C
:100A8000004400404000002000208C40636F6465FB
:100A90000000000053616D706C65436F6C6C6563A2
:100AA0007420537563636573730000006D73670092
:100AB000646174615F7265706F72740074797065DF
:100AC00000000000766163756F6C655F76616C7520
:100AD0006500000073616D706C655F76616C7565B3
:100AE00000000000FC040020696D670063610000E5
:100AF0006B0000006E610000636C000010000020BD
:100B0000706F7765720000006F6E00007363616E36
:100B10005F6964007072655F746573740000000043
:100B2000360000206F6E5F6F66665F6865617400F7
:100B300010BB0222AFF23001284607F008FD58B979
:100B4000FE480068FFF76CFE002301224FF4FD71A0
:100B5000FB48006806F0BEFD0322FAA1284607F014
:100B6000F6FC48B9FFF76DFE0023012240F2FB11AD
:100B7000F348006806F0AEFD0E22F3A1304607F000
:100B8000E6FCD0B90B22F4A1284607F0E0FC10B92E
:100B90000A20FFF7F8FE0B22F2A1284607F0D7FC47
:100BA00010B9F34801F071FE0B22F2A1284607F0BC
:100BB000CEFC10B9F24801F021FF0522F1A1304628
:100BC00007F0C5FCBDE8F0872DE9FE4F0746384623
:100BD00008F0F1FC0646002E70D0AFF250113046FE
:100BE00008F08AFFD0F81480B8F5617F62D1AFF2C7
:100BF0003411304608F080FFD0F810900722E3A1AE
:100C0000484607F0A4FC30B900230122C821CC4893
:100C1000006806F05FFD0922DEA1484607F097FC58
:100C200050B9FFF7F2FD0446002301222146C448D3
:100C3000006806F04FFD00BF0B22D9A1484607F01F
:100C400086FC60BBAFF27C11304608F055FF029085
:100C5000029808F0FFFE824600241DE0214602981B
:100C600008F015FF8346002510E02946584608F095
:100C70000EFF006A01902946584608F008FF0069F7
:100C80000090DDE90010FFF799FE6D1C584608F052
:100C9000E1FEA842E9DC641C5445DFDB00BF022210
:100CA000C2A1484607F053FC0322C1A1484607F001
:100CB0004EFC00BF304607F0F9FD00BFBDE8FE8FD7
:100CC0002DE9F05F04468B4609F01BF980460022AF
:100CD000B84BAFF24821404609F099F8B6A2AFF2FE
:100CE0003421404609F0C6F8AFF23C22AFF234217D
:100CF000404609F0BFF809F024F98146064632461D
:100D0000AFF23821404608F091FF09F0FAF8824628
:100D100006463146484608F045FF2246AAA15046FD
:100D200009F0A8F8404608F040FE0746384609F0AA
:100D300099FD0546A7480078012805D12A4639467D
:100D400002F023FAFFF782FC38460AF083FD4046A2
:100D500007F0ACFDBDE8F09F70B506460C461546A1
:100D6000012E06D0022E09D0032E0CD0042E0CD159
:100D70000AE029462046FFF727FF06E029462046DD
:100D8000FFF79EFF01E000E000BF00BF70BD70B53F
:100D90000546002612E0904801F0E8FC044644B104
:100DA000002301224FF404716548006806F092FCAC
:100DB00006E001210846FFF74EFD761CAE42EAD35D
:100DC00000BF70BD7047704700B5002083490870B0
:100DD0008349087083490870834908708349087003
:100DE0008349087083490870FFF7ECFFFFF7EBFFBA
:100DF00000BD2DE9F05F04460D4609F082F88146FA
:100E000000226C4BAFF27C31484609F000F87AA220
:100E1000AFF26831484609F02DF8AFF26C32AFF20C
:100E20006431484609F026F809F08BF882460646F8
:100E3000324678A1484608F0F9FE09F062F8834688
:100E400006463146504608F0ADFE64B9012D05D185
:100E500075A277A1584609F00DF804E079A274A1B3
:100E6000584609F007F8012C0CD1012D05D16EA2CE
:100E700076A1584608F0FEFF04E072A273A158461E
:100E800008F0F8FF484608F090FD0746384609F09C
:100E9000E9FC804642463946012002F076F93846A0
:100EA0000AF0D8FC484607F001FDBDE8F09F70B598
:100EB00004462546A81E05283ED2DFE800F00306BA
:100EC0000F27D600FFF754FDD3E0FFF755FD0020B4
:100ED00047490870012045490870CAE001210020F7
:100EE000FFF787FF0A20FFF74EFD00210846FFF7B6
:100EF00080FF01F0A7FB01203D490870002301227B
:100F000003215748006806F0E5FBB2E001210846DE
:100F1000FFF76FFF0A20FFF73AFF00210120FFF7DC
:100F200068FF01F08FFB0120314908700023012286
:100F300006214B48006895E09AE000003C00002044
:100F4000100000206F66660073616D706C655F63F2
:100F50006F6C6C6563740000746573745F636172B9
:100F6000645F6100746573745F636172645F6200E3
:100F700060050020746573745F636172645F630071
:100F8000D80500207072696E74000000636F6E6E89
:100F90006563740073656C665F746573740000004C
:100FA00073616D706C655F746573740071630000CC
:100FB0007365740000208C405363616E2053756329
:100FC00063657373000000007363616E5F696E6632
:100FD0006F00000030000020FC04002037000020DB
:100FE00031000020320000203300002034000020B7
:100FF000350000203600002053616D706C65436F32
:101000006C6C656374205374617274206F7220532A
:10101000746F70006F6E5F6F66665F746573745F88
:1010200076616C7565000000737461727400000075
:101030006F6E5F6F66665F766163756F6C655F7418
:101040006573740073746F70000000006F6E5F6FE3
:1010500066665F73616D706C655F746573740000C4
:101060001400002006F036FB03E0FFF7ADFE00E0C1
:1010700000BF00BF70BD2DE9F0470446254608F0CB
:1010800040FF8246284609F08CFF064632460B4652
:10109000AFF20861504608F0BAFE40F2F711681A44
:1010A0008D426FD01EDCB5F5977F4AD00FDCC82D7E
:1010B00069D004DC642D2ED06A2D73D132E0B5F5F1
:1010C000967F36D0A5F22D100028F6D138E0A5F293
:1010D0002F10002836D0012835D0C5283AD0C7288F
:1010E000EBD167E0142845D00CDC04285BD004DC8D
:1010F000012849D00328E0D14DE0122833D013282D
:101100007BD12EE0152836D016285AD0182829D0A1
:10111000192872D15CE044A2AFF27061504608F029
:10112000A9FE6BE044A2AFF27C61504608F0A2FE3B
:1011300064E045A2AFF28C61504608F09BFE5DE092
:1011400000BF00BF00BF45A2AFF2A061504608F04B
:1011500091FE53E045A2AFF2AC61504608F08AFE22
:101160004CE000BF00BF46A2AFF2C061504608F09D
:1011700081FE43E000BF46A2AFF2D061504608F0C6
:1011800079FE3BE032E02AE044A2AFF2E061504653
:1011900008F070FE32E046A2AFF2F061504608F06F
:1011A00069FE2BE029E046A2AFF20071504608F03C
:1011B00061FE23E047A2AFF20C71504608F05AFEE0
:1011C0001CE049A2AFF21C71504608F053FE15E036
:1011D00048A2AFF22871504608F04CFE0EE04BA238
:1011E000AFF23871504608F045FE07E04BA2AFF26F
:1011F0004471504608F03EFE00BF00BF00BF50469D
:1012000008F0D3FB8046404609F02CFB81464A4655
:101210004146012001F0B9FF40460AF01BFB504651
:1012200007F044FBBDE8F087496E6974205375638D
:1012300063657373000000005561727420496E6924
:1012400074204572726F720053656C66205465732A
:1012500074205375636365737300000053656C6697
:101260002054657374204572726F720053696D70FB
:101270006C652054657374205375636365737300E4
:10128000546573742043617264204572726F7200FA
:101290004D6F746F72204572726F720050726520CC
:1012A0007465737420537563636573730000000085
:1012B00048656174206F6E205375636365737300B6
:1012C00048656174206F6666205375636365737348
:1012D000000000004865617420746F2073657420FD
:1012E00076616C7565000000486561742045727216
:1012F0006F72000053616D706C6520436F6C6C659C
:101300006374204572726F72000000005561727440
:10131000205375636365737300000000436172645A
:1013200020496E736572742053756363657373002F
:1013300008B50121402002F0F1FB0420ADF80000C7
:1013400010208DF8030003208DF802006946044840
:1013500002F028F90421024802F0D1F908BD00008A
:101360000018014008B50121082002F0D7FB022037
:10137000ADF8000028208DF803006946284802F0E7
:1013800011F908BD10B5044614B1012025490870B3
:101390002448007868B32021234802F096F958B118
:1013A0004FF40041214802F090F928B101211F4873
:1013B00002F08BF901281CD10A2001F0A6FD0020C3
:1013C000184908702021184802F07FF908B9012057
:1013D00010BD4FF40041154802F077F908B902201A
:1013E000F6E70121114802F070F9012815D1032018
:1013F000EEE720210C4802F068F901280DD1C10365
:101400000A4802F062F9012807D10121074802F0D9
:101410005CF910B90120034908700020D8E70000EA
:10142000000C014044000020001001400008014071
:101430000EB50121084602F071FBFFF793FF012171
:10144000084602F0C5F90220019000208DF808003E
:101450000C208DF8090001208DF80A0001A803F086
:101460004FFD07208DF8000009208DF801000020B5
:101470008DF8020001208DF80300684602F0B7FBEA
:101480000EBD10B54FF4967001F05DFD02211548B8
:1014900002F01BF910B9012013490870022003F073
:1014A000A6FD10BD10B50A2001F04DFD20210F480A
:1014B00002F00BF988B90E48006805F074FB044689
:1014C0000CA00AF0A3F9012C07D134B120070E4972
:1014D0000860BFF34F8FBFF36F8F202003F087FDAD
:1014E00010BD0000000C0140480000200010014029
:1014F0004C000020BBD6B8B4C8CECEF132B5C4D4AF
:10150000CBD0D0210D0A000004ED00E07FB50546E8
:101510000C460121022002F00EFBADF80850ADF898
:1015200004400020ADF80A00ADF8060001A93C48CF
:1015300002F09EFE01221146394803F010FA1D20E8
:101540008DF8000001208DF8010000208DF80200C8
:1015500001208DF80300684602F049FB0121304864
:1015600003F0E2F97FBD10B500212E4A11605160F1
:1015700047213120FFF7CAFF10BD10B501212848CF
:1015800003F09BFC012808D1264802684068521CE1
:1015900040F1000023490A6048600121204803F01F
:1015A0009DFC10BD30B589B005460C4601210220D6
:1015B00002F0C1FA0121082002F0B0FA0120ADF8D2
:1015C000200018208DF8230003208DF8220008A9A0
:1015D000154801F0E7FFADF81850ADF814400020B1
:1015E000ADF81A00ADF8160005A90D4802F040FE4E
:1015F0007020ADF804000120ADF806000020ADF821
:101600000C0001A9064802F0FFFE0821044803F07F
:10161000D1FA0121024803F087F909B030BD00007A
:101620000004004050000020000C014008B50121DA
:10163000084602F073FA0121634802F084F80121A0
:10164000082002F06BFA4FF48070ADF80000102013
:101650008DF8030003208DF8020069465B4801F015
:10166000A1FF4FF48071594802F049F84FF400701F
:10167000ADF8000010208DF8030003208DF8020063
:101680006946524801F08EFF4FF400714F4802F056
:1016900036F81020ADF8000048208DF80300032034
:1016A0008DF802006946494801F07CFF0820ADF83A
:1016B000000010208DF8030003208DF80200694619
:1016C000424801F06FFF0821404802F018F808BDB9
:1016D00070B505460024012D07D141023B4802F0B8
:1016E0000EF82902394802F00CF8022D07D1E90161
:1016F000364802F004F82902344802F002F80026C5
:101700001AE00821314801F0FAFF0A2001F0DBFB62
:1017100010212E4801F0D9FF08B144F001044FF622
:10172000FF7000EA44040821284801F0EAFF0A207B
:1017300001F0C9FB701C86B2102EE2DB012D03D133
:101740002902224801F0DBFF022D03D129021F48A4
:1017500001F0D5FF04F0040008B1002404E04FF6C6
:10176000FF7000EA44042411204670BD2DE9F14FBA
:1017700086B0174802904FF4967001F0C6FB0698A9
:10178000FFF7A6FF0490029809F037FC04460D46C7
:10179000049809F006FC804600220E4B09F00FFB6E
:1017A00000220D4BCDE9000109F07BFB06462246E5
:1017B0002B4609F076FB824609F062FC0390039801
:1017C00007B0BDE8F08F000000023000000C0140BF
:1017D0009224094000FE8F4000FEAF4008B5012171
:1017E000102002F09BF94FF4E070ADF800001020DB
:1017F0008DF8030002208DF802006946504801F080
:10180000D1FE08BD10B50A2001F05DFB4FF48071D8
:101810004B4801F076FF0A2001F055FB4FF4807130
:10182000474801F06CFF10BD10B5FFF7D7FF01F07E
:1018300026FA8021424801F062FF4FF4807140484F
:1018400001F05DFFFFF7DEFF10BD2DE9F041054619
:101850000E4617464FF000080024280540EA0648C7
:10186000BCB244EA08044021354801F04AFF642034
:1018700001F029FBC4F3074001F0DAF9C4F30720B3
:1018800001F0D6F9E0B201F0D3F90A2001F01BFB18
:1018900040212B4801F033FFBDE8F08170B50446CC
:1018A0000D462A4621460120FFF7CFFF70BD10B537
:1018B0000446002221460520FFF7C7FF10BD70B582
:1018C00004460D462A4621460320FFF7BEFF70BDA1
:1018D00010B51C4C40211A4801F013FF642001F0A0
:1018E000F2FA200C01F0A4F9C4F3072001F0A0F9EA
:1018F000E0B201F09DF9642001F0E5FA40211048C2
:1019000001F0FDFE10BD10B54FF4800440210C48DD
:1019100001F0F7FE642001F0D6FA200C01F088F9FE
:10192000C4F3072001F084F9E0B201F081F96420EA
:1019300001F0C9FA4021024801F0E1FE10BD0000AB
:101940000010014055554000F8B506460F461546B3
:1019500000240020009000BF13E07019001B401EFF
:10196000C0B28DF80000E00027FA00F0C0B28DF898
:1019700001000123022269460D2000F03CFA601CA0
:10198000C4B2AC42E9DBF8BD10B5B2480078202201
:1019900042EA4000B04A127840EA02010122802067
:1019A000FFF7D2FF10BD10B5AA480078102242EA16
:1019B0004000A94A127840EA020101228020FFF784
:1019C000C3FF10BD70B504460D46002040EA440038
:1019D00040EA050101228020FFF7B6FF9D48047010
:1019E0009D48057070BD10B504469C4804600122F6
:1019F00001688120FFF7A8FF10BD10B59548007859
:101A0000B02242EA4000944A127840EA02010122E0
:101A10008020FFF799FF10BD10B504460222214631
:101A20008A20FFF791FF10BD70B504460E4615469B
:101A3000032221468220FFF787FF032231468520BB
:101A4000FFF782FF022229468820FFF77DFF70BD45
:101A500010B58248006840F0100101228120FFF794
:101A600073FF10BD10B500F0FDF80A2001F04DFA2B
:101A7000FFF7EEFF0A2001F048FA0A2248F2DC21C3
:101A80007748FFF7D1FF0F20FFF7C6FFFFF7B5FF3D
:101A90000820FFF7A8FF00210120FFF793FFFFF7C1
:101AA00082FFFFF771FF10BD2DE9FC4107460E468E
:101AB0000024002001900090002500BF1BE0B02012
:101AC0008DF804003819C0B28DF8050001230222F8
:101AD00001A90D2000F08FF9FF208DF800000123EF
:101AE0001A4669460D2000F0D2F92D029DF800003B
:101AF0000544601CC4B2B442E1DB2846BDE8FC8169
:101B000010B5002453480078B02242EA4000524AFF
:101B1000127840EA020101228020FFF715FFFFF74B
:101B200097FF4C480078102242EA40004A4A127857
:101B300040EA020101228020FFF706FF0A2001F09F
:101B4000E4F944480078202242EA4000424A1278F0
:101B500040EA020101228020FFF7F6FE04E00121A5
:101B60008F20FFF7A1FFC4B204F002000028F6D0D6
:101B700010BD30B504460D4600210A460B461046FE
:101B8000194630BD70B504460D46164600210A467A
:101B90000B461046194670BD2DE9F041044600265B
:101BA0000027B046002520012A4A127840EA420068
:101BB000294A127840EA020101228020FFF7C4FE80
:101BC00004E001218F20FFF76FFFC7B207F002008A
:101BD0000028F6D002219420FFF766FF0FFA80F864
:101BE000142001F070F902219620FFF75DFF05B285
:101BF00008FB08F005FB05063046BDE8F08170B52E
:101C00000024002513480078902242EA4000124A3E
:101C1000127840EA020101228020FFF795FE04E0DD
:101C200001218F20FFF740FFC5B205F00100002819
:101C3000F6D002219220FFF737FF0446B4F5005F8B
:101C400001D2640902E0A4F580446409204670BD15
:101C50000020704760000020610000205C00002030
:101C6000285C0F0008B50121082001F057FFC020B3
:101C7000ADF8000014208DF8030003208DF8020059
:101C80006946934801F08EFC40209149103108606C
:101C90008020086008BD10B540208D4910310860D3
:101CA00080200860042001F00EF98020884914315A
:101CB0000860042001F007F980208549143108608C
:101CC000042001F000F9402081491431086010BD62
:101CD00010B540207E49143108608020086004203F
:101CE00001F0F1F840207A49103108608020086046
:101CF000042001F0E8F810BD10B5002480207449DC
:101D000010310860042001F0DEF8402070491031E5
:101D10000860042001F0D7F807E0601CC4B2FA2C78
:101D200003DDFFF7D5FF012010BD694808300068CA
:101D300000F080000028F0D140206549143108608F
:101D40000020F1E710B5402061491431086080207F
:101D50000860042001F0B7F840205D4910310860A8
:101D6000042001F0B0F8402059491431086010BD3A
:101D700010B540205649143108608020091F0860C2
:101D8000042001F0A0F840205149103108600420DF
:101D900001F099F840204E491431086010BD70B52B
:101DA0000446002540204A491431086000BF1FE066
:101DB000E00920B1802046491031086003E080200E
:101DC0004349143108606006040E0A2001F07BF8D4
:101DD00040203F49103108600A2001F074F840208B
:101DE0003B49143108600A2001F06DF8681CC5B247
:101DF000082DDDDB70BD2DE9F04105460E46174686
:101E00009846FFF748FF6906080EFFF7C8FFFFF77F
:101E100073FF002406E0305DFFF7C1FFFFF76CFFA2
:101E2000601CC4B2BC42F6DBB8F1000F01D0FFF772
:101E30004FFF0A2001F069F8BDE8F08170B5054652
:101E40000024002619E040202149143108600A20AE
:101E500001F039F840201E49103108606006040E78
:101E60001B480830006800F0800008B1601CC4B254
:101E70000A2001F028F8701CC6B2082EE3DB15B961
:101E8000FFF776FF01E0FFF75DFF204670BD2DE90B
:101E9000F04105460E4617469846FFF7FCFE012125
:101EA00001EB4501C8B2FFF77AFFFFF725FF0024D9
:101EB00005E00020FFF7C2FF3055601CC4B2BC42F1
:101EC000F7DBB8F1000F01D0FFF702FFBDE8F081AA
:101ED000000C014030B502460023002018E08023AA
:101EE00011E014781C400CB1012400E00024C0F380
:101EF000C015AC4204D04406200E80F0070001E07B
:101F00004406200E5B10002BEBD1521C4C1EE1B29C
:101F10000029E4D130BD2DE9FF4106460C460027DB
:101F2000002002900390002580460090019006B1A9
:101F30001CB9012004B0BDE8F081207800F03F001A
:101F400040F040008DF80800B16811B1A168491C4B
:101F500000E0A168891CCAB2307802A900F000FB39
:101F60000746002F01DA3846E4E7B068012819D1A6
:101F7000207800F03F0040F040008DF8000001257F
:101F800005E002A8405D0DF80500681CC5B2A06818
:101F9000801CA842F5DC207A801CC1B26846FFF79D
:101FA00099FF8046B8F1000F02D06FF00100C1E741
:101FB00000206060012509E060680002606002A9FD
:101FC000495D606808446060681CC5B2A068401C38
:101FD000A842F1DC3846ADE70FB42DE9FC410446D8
:101FE000002700260020009001900025804624B99B
:101FF0000120BDE8FC015DF814FB099800F03F00EA
:102000008DF800000A9E002507E0F0B20B99491BED
:102010000DF801003612681CC5B20B98A842F4DC1A
:10202000A06850B10B98401CC1B26846FFF752FF40
:1020300080460B98401C0DF80080A16811B10B99E7
:10204000891C01E00B99491CCAB22078694600F04E
:10205000A7FA07463846CCE770B504460D46294630
:102060002046FFF758FF0646304670BD0FB438B51E
:10207000044608980090204605A90EC9FFF7ACFF5A
:102080000546284638BC5DF814FB7CB5044600259F
:10209000F7A103C9CDE900010CB901207CBD20786E
:1020A0000822694600F07CFA05462846F6E72DE945
:1020B000F04104460D464FF0000814B90120BDE878
:1020C000F08166680DE006F160012046FFF7C4FF6D
:1020D0000746002F01DA3846F1E70121706E21EA48
:1020E0009018B8F1000F02D1681E051EEBD10DB19A
:1020F0000020E4E76FF00200E1E72DE9F04104463B
:102100000D464FF0000814B90120BDE8F081666863
:102110000CE031462046FFF79FFF0746002F01DA0B
:102120003846F2E70121706821EAD018B8F1000FB3
:1021300002D1681E051EECD10DB10020E5E76FF05D
:102140000200E2E770B505460DB9012070BD6C686C
:1021500021462846FFF780FF0646002E01DA30466A
:10216000F4E7207900F0800018B9207900F00F0022
:10217000ECE70020EAE72DE9FE4F824600200290BE
:1021800000BFBAF1000F03D1BB4903B0BDE8F08F27
:10219000DAF804B00BF120015046FFF75DFFDBF8E1
:1021A00024000290029808F0EBFE0022B34BCDE928
:1021B000000108F076FE06460022AF4B08F0F9FD5C
:1021C00080460022AE4B08F0FAFD04460D4620463C
:1021D0002946DAE72DE9F0478146002400BF0BE0ED
:1021E0004846FFF7C8FF07462A46334608F040FD39
:1021F00005460E46601C44B20A2CF1DB0022A14BBE
:102200002846314608F04DFEBDE8F08770B504461B
:102210000CB9012070BD65686FF07F412046FFF763
:102220006CFF05F120012046FFF716FF686AF1E711
:1022300000B9704741687422525C02F0040212B186
:102240000122826001E00022826000BFF1E700B954
:10225000704741687422525C02F0400212B10122C0
:10226000C26001E00022C26000BFF1E7F8B5054698
:1022700000270DB90120F8BD834868600020286060
:1022800046F2A810286100F064F906464FF4FA708F
:1022900000F03BFE2846FFF7F8FE0646002E01DA66
:1022A0003046E8E74FF4FA7000F02FFE0120E860B6
:1022B000002421E0744800EB0410C068012810D10C
:1022C000714800EB0410C06800906F4800EB041CDC
:1022D00028469CE80E00FFF7C9FE0646002E00DAED
:1022E0000CE0072C05D12846FFF7A2FF2846FFF790
:1022F000AEFF7F1C601CC4B2392CDBDB00BF304654
:10230000B9E738B504466148C06900905F481030AD
:102310000EC82046FFF7AAFE0546642000F0F5FD32
:102320005948C0690090584810300EC82046FFF741
:102330009DFE05460A2000F0E8FD284638BDF8B5A8
:1023400005460F460DB90120F8BD092439E0BC420D
:102350001AD1686800EB0410406840F400406968D6
:1023600001EB04114860484800EB0410C06800907D
:10237000454800EB041C28469CE80E00FFF776FE5B
:102380000646002E1BDA1EE0686800EB0410808809
:10239000C0F30E00696801EB041148603A4800EB95
:1023A0000410C0680090384800EB041C28469CE8E4
:1023B0000E00FFF75BFE0646002E00DA03E0601C0D
:1023C000C4B2162CC3DB00BF3046BDE72DE9F8438D
:1023D00005468846474615B90120BDE8F88309241B
:1023E0001BE007F0010058B1686800EB041040687A
:1023F00040F40040696801EB041148607F100AE076
:10240000686800EB04108088C0F30E00696801EB77
:10241000041148607F10601CC4B2162CE1DB00245C
:1024200020E0194800EB0410C068012810D11648BC
:1024300000EB0410C0680090134800EB041C284611
:102440009CE80E00FFF712FE0646002E00DA0BE0B5
:10245000072C05D12846FFF7EBFE2846FFF7F7FECD
:10246000601CC4B2392CDCDB00BF3046B5E700008D
:10247000FFFFFFFFFFFFFFFF0000F03F0000604194
:10248000D01243410000244064000020F4030020E7
:1024900000B587B00121042001F040FB01210803B1
:1024A00001F03CFBE020ADF8180018208DF81B006F
:1024B00003208DF81A0006A9474801F073F8E021BF
:1024C000454801F01CF90020ADF804004FF482707B
:1024D000ADF806000020ADF808000220ADF80A00B3
:1024E0000120ADF80C004002ADF80E003820ADF828
:1024F00010000020ADF812000720ADF8140001A96B
:10250000364802F0A3FD0121344802F044FEFF20CA
:1025100000F08EFB07B000BD08B50121080201F0F4
:10252000FDFA4FF4C070ADF8000010208DF80300E4
:1025300002208DF802006946294801F033F84FF473
:102540008071274801F0DBF88021254801F0D7F899
:1025500008BD10B5FFF7E0FFFFF79AFF002010BDA0
:102560002DE9F04107460C46164600254FF48071D0
:102570001B4801F0C6F8207800F05AFB012505E061
:10258000002000F055FB6055681CC5B2B542F7DB72
:102590004FF48071124801F0B2F80020BDE8F081DC
:1025A0002DE9F04107460D46164600244FF4807190
:1025B0000B4801F0A6F800BF04E0285D00F038FBEE
:1025C000601CC4B2B442F8DB4FF48071044801F0DF
:1025D00096F80020BDE8F08100080140003001407D
:1025E0000020014010B5002400F048FCFFF71CF962
:1025F00048F63C210020FFF762F949F27A410120B8
:10260000FFF75DF949F6B7610220FFF758F94AF67E
:10261000F5010320FFF753F94BF232310420FFF7A5
:102620004EF947F6FF710520FFF749F9FFF71AFA4F
:10263000FE48FFF71BFE00F0E4FB002000F0AFFBBC
:10264000204610BD10B5002000F0A9FB10BDF0B56C
:102650008DB00027002641F6FF71F448FFF7B6FE63
:10266000002000F09CFB0A2000F04FFC00250CE04D
:10267000EE48FFF7CBFD064606F00F00A84202D158
:10268000300A4DF82500681CC5B20D2DF0DB002482
:102690000CE05DF82400E649884204D35DF824008C
:1026A000E449884200D90127601CC4B2082CF0DB41
:1026B000E1490898884203D3DD490898884200D947
:1026C0000127DC490998884203D3DC4909988842EC
:1026D00000D90127DA490A98884203D3D9490A98D0
:1026E000884200D90127D7490B98884203D3D6499D
:1026F0000B98884200D90127D2490C98884203D30D
:10270000D1490C98884200D9012738460DB0F0BD58
:1027100070B501240025002000F018FB142000F003
:10272000D2FB0420FFF738FA054647F230508542C5
:1027300000D90024002000F032FB204670BD70B5A7
:1027400001240025012000F001FB142000F0BBFB58
:102750000420FFF721FA054647F23050854200D9A0
:102760000024002000F01BFB204670BD2DE9FC4733
:1027700006464FF0000900200090019000242F2110
:10278000AA48FFF723FE4FF6407000F008FB0A202E
:1027900000F0BBFB002563E000275DE0A348FFF7E6
:1027A00035FD044604F00F00B84253D304F00F0780
:1027B000062F4DD2DFE807F003101F2E4C3D6FF0BF
:1027C0007F4000EA142046F825009DF80000401CD8
:1027D00040B28DF800003CE06FF07F4000EA142129
:1027E00006F1140040F825109DF80100401C40B28D
:1027F0008DF801002DE06FF07F4000EA142106F112
:10280000280040F825109DF80200401C40B28DF8C9
:1028100002001EE06FF07F4000EA142106F13C0048
:1028200040F825109DF80300401C40B28DF80300CD
:102830000FE06FF07F4000EA142106F1500040F8ED
:1028400025109DF80400401C40B28DF8040000E003
:1028500000BF00BF781CC7B2062F9FDB681CC5B243
:10286000052D99DB4FF0000809E01DF80800052848
:1028700001D04FF0010908F1010000F0FF08B8F1A4
:10288000050FF2DB4846BDE8FC872DE9FC4706460C
:102890004FF00009002000900190002441F6D04143
:1028A0006248FFF793FD4FF6407000F078FA0A2077
:1028B00000F02BFB00258AE04FF0000881E05B4828
:1028C000FFF7A4FC044604F00F00404575D304F064
:1028D0000F08A8F1040009286DD2DFE800F0056CAC
:1028E00012216C6C334557006FF07F4000EA1420D2
:1028F00046F825009DF80000401C40B28DF800000D
:102900005AE06FF07F4000EA142106F1140040F80D
:1029100025109DF80100401C40B28DF801004BE0ED
:102920006FF07F4000EA142106F1280040F82510DE
:102930009DF80200401C40B28DF80200E02000F03B
:102940002EFA39E06FF07F4000EA142106F13C00D6
:1029500040F825109DF80300401C40B28DF803009C
:10296000C42000F01CFA27E06FF07F4000EA142139
:1029700006F1500040F825109DF80400401C40B2BC
:102980008DF80400C22000F00AFA15E06FF07F40D5
:1029900000EA142106F1640040F825109DF80500B6
:1029A000401C40B28DF805004FF6407000F0F7F97A
:1029B00002E002E0FFE700BF00BF08F1010000F005
:1029C000FF08B8F10D0FFFF67AAF681CC5B2052DF0
:1029D000FFF672AF00270CE01DF907101BA008F0EE
:1029E00015FF1DF80700052801D04FF00109781CDC
:1029F000C7B2062FF0DB4846BDE8FC872DE9FE4351
:102A000006464FF00009002000900190029000243B
:102A100041F6FF710548FFF7D9FC4FF6407000F012
:102A2000BEF90A2000F071FA0025E9E0B4060020A2
:102A30004054890080618C00A0CD8700C06E8F005B
:102A4000A0029400E00F9700C0D8A70025640D0AEB
:102A5000000000000027CEE07448FFF7D7FB0446D3
:102A600004F00F00B84277D304F00F070D2F74D293
:102A7000DFE807F00714233241506374BDBD869828
:102A8000AA006FF07F4000EA142046F825009DF868
:102A90000000401C40B28DF80000A9E06FF07F40BC
:102AA00000EA142106F1140040F825109DF80100F9
:102AB000401C40B28DF801009AE06FF07F4000EAC0
:102AC000142106F1280040F825109DF80200401C52
:102AD00040B28DF802008BE06FF07F4000EA1421D5
:102AE00006F13C0040F825109DF80300401C40B260
:102AF0008DF803007CE06FF07F4000EA142106F1BE
:102B0000500040F825109DF80400401C40B28DF89C
:102B100004006DE06FF07F4000EA142106F16400CC
:102B200040F825109DF80500401C40B28DF80500C6
:102B30004FF6407000F033F95AE06FF07F4000EA42
:102B4000142106F1780040F825109DF80600401C7D
:102B500040B28DF806004BE04BE048E06FF07F405C
:102B600000EA142106F18C0040F825109DF80700BA
:102B7000401C40B28DF80700E02000F010F937E06B
:102B80006FF07F4000EA142106F1A00040F8251004
:102B90009DF80800401C40B28DF80800C42000F0E9
:102BA000FEF825E06FF07F4000EA142106F1B40042
:102BB00040F825109DF80900401C40B28DF809002E
:102BC000C22000F0ECF813E06FF07F4000EA14211F
:102BD00006F1C80040F825109DF80A00401C40B2DC
:102BE0008DF80A004FF6407000F0D9F800E000BF01
:102BF00000BF781CC7B20D2FFFF62EAF681CC5B200
:102C0000052DFFF627AF4FF0000809E01DF808007A
:102C1000052801D04FF0010908F1010000F0FF087C
:102C2000B8F10B0FF2DB4846BDE8FE83B406002086
:102C300070B50546002405E0601CC4B2C82C01DD57
:102C4000002070BD0221384802F029FB0028F3D093
:102C50002946354802F0D0FA002405E0601CC4B2D1
:102C6000C82C01DD0020ECE701212F4802F017FB02
:102C70000028F3D02C4802F0C1FAC0B2E1E700B559
:102C800087B00121042000F049FF0121080300F072
:102C900045FFE020ADF8180018208DF81B00032038
:102CA0008DF81A0006A9214800F07CFCE0211F489D
:102CB00000F025FD0020ADF804004FF48270ADF85F
:102CC00006000020ADF80800ADF80A000120ADF8BC
:102CD0000C004002ADF80E003820ADF810000020C6
:102CE000ADF812000720ADF8140001A90E4802F05B
:102CF000ADF901210C4802F04EFAFF20FFF798FFD2
:102D000007B000BD10B50446074800884FF6C771EC
:102D100008400549088008460088204308800121B2
:102D2000014802F038FA10BD0030014000080140AF
:102D30002DE9F04104460D4616461F463B463246F5
:102D400029462046FFF757F8BDE8F08110B5044644
:102D50004FF40071434800F0D2FC2CB14FF4807165
:102D6000414800F0CCFC04E04FF480713E4800F094
:102D7000C8FC142000F0A7F801231A4600212020E7
:102D8000FFF7D6FF142000F09EF801231A46002119
:102D90002120FFF7CDFF142000F095F810BD38B5C5
:102DA0000446C4F3072000904FF400712D4800F052
:102DB000A8FC4FF480712C4800F0A3FC01231A46B4
:102DC00069462020FFF7B4FF142000F07CF8E0B241
:102DD000009001231A4669462120FFF7A9FF14201D
:102DE00000F071F838BD2DE9F04104460D46164655
:102DF0001F463B46324629462046FFF748F8BDE8C5
:102E0000F08108B50121102000F088FE4FF4007019
:102E1000ADF8000010208DF8030002208DF80200AC
:102E20006946104800F0BEFB4FF400710D4800F0F9
:102E300066FC0121042000F071FE4FF48070ADF8B3
:102E4000000010208DF8030002208DF80200694672
:102E5000054800F0A7FB4FF48071034800F04FFCD9
:102E600008BD0000001001400008014010B504F04A
:102E7000E2F9012801D005F09DF910BD10B504203C
:102E800000F0FFFE364800683649B0FBF1F03649E5
:102E90000870334800683349B0FBF1F44FF47A709E
:102EA00044430120314908804FF0E020006940F0A0
:102EB00002004FF0E021086108464461006940F0DB
:102EC0000100086110BD70B5034600224FF0E026F6
:102ED0007569254E367803FB06F44FF0E026B1699C
:102EE00010E04FF0E026B06988420BD0884202D251
:102EF0000E1A324402E02E1A0E4432440146A24217
:102F000000D300E0EDE700BF70BD70B5044604F0EB
:102F100092F9012810D015480088844206D313483E
:102F20000088B4FBF0F5284603F001FC0F48008848
:102F3000B4FBF0F100FB11444FF47A7104FB01F093
:102F4000FFF7C1FF70BD30B50446002504E04FF423
:102F50007A70FFF7B8FF6D1CA542F8D330BD0000B2
:102F60001C00002040420F00140400201604002022
:102F700000BF704700BF704700BFFE4A128802F0D2
:102F80004002002AF9D0C2B2FA4B1B1D1A807047CA
:102F900010B586B004460121C80400F0CCFD012123
:102FA000102000F0BBFD4FF48060ADF8140003204A
:102FB0008DF8160018208DF8170005A9EE4800F0CE
:102FC000F1FA4FF40060ADF8140004208DF81700FA
:102FD00005A9E94800F0E6FA34208DF80000082041
:102FE0008DF8010001208DF802008DF8030068467D
:102FF00000F0FDFD01940020ADF80800ADF80A00D6
:10300000ADF80C00ADF810000C20ADF80E0001A9D1
:10301000DA4800F098FE012240F22551D74800F02E
:103020002AFF0121D54800F01AFF06B010BD10B5E7
:1030300086B004460121480400F07DFD01210420F2
:1030400000F06CFD0420ADF8140003208DF816008C
:1030500018208DF8170005A9C94800F0A3FA082028
:10306000ADF8140004208DF8170005A9C44800F03D
:1030700099FA26208DF8000008208DF80100012023
:103080008DF802008DF80300684600F0B0FD019451
:103090000020ADF80800ADF80A00ADF80C00ADF85E
:1030A00010000C20ADF80E0001A9B64800F04BFE50
:1030B000012240F22551B34800F0DDFE012240F22A
:1030C0002441B04800F0D7FE0121AE4800F0C7FE11
:1030D00006B010BD10B586B00446012144F20400CC
:1030E00000F01CFD4FF40070ADF8140003208DF8C3
:1030F000160018208DF8170005A9A14800F052FA13
:103100004FF48060ADF8140004208DF8170005A975
:103110009B4800F047FA25208DF8000008208DF824
:10312000010000208DF8020001208DF803006846A0
:1031300000F05DFD01940020ADF80800ADF80A0034
:10314000ADF80C00ADF810000C20ADF80E0001A990
:10315000884800F0F8FD012240F22551854800F032
:103160008AFE0121834800F07AFE06B010BD10B53A
:103170004FF4E130FFF7AEFF4FF4E130FFF757FFB8
:103180004FF4E130FFF704FF10BD2DE9F041054693
:103190000E461746002434E0012D0AD1315D7548F2
:1031A00000F0CAFE00BF4021724800F033FF012842
:1031B000F9D1022D0AD1315D724800F0BDFE00BF89
:1031C0004021704800F026FF0128F9D1032D0AD1D3
:1031D000315D6D4800F0B0FE00BF40216A4800F04C
:1031E00019FF0128F9D1042D0AD1315D634800F09F
:1031F000A3FE00BF4021614800F00CFF0128F9D177
:10320000641CBC42C8DBBDE8F08138B540F22551F2
:10321000584800F015FF002860D0564800F090FE96
:10322000C4B25A48008840B97B2C03D101205849C8
:10323000087002E0002056490870554800780128BF
:1032400047D15248008800F40040002846D17B2C2A
:1032500005D150480088401C4E49088006E07D2C6E
:1032600004D14D480088401C4B49088049480088DB
:103270004949098888420AD14448008840F40040FE
:1032800042490880002043490880434908803F485C
:103290000088C0F30D0041490C543C480088401C94
:1032A0003A4908803B48008814280ADC3A480088DC
:1032B000142806DC08460088C0F30D00B0F5807FB6
:1032C0000CDD0020314908803249088032490880ED
:1032D00004E000202D4908802D4908702B48008803
:1032E00000F4004088B12E48006870B169462C484F
:1032F000006804F0EDFA009838B14FF08050294989
:103300000860BFF34F8FBFF36F8F38BD38B54021D2
:103310001C4800F08CFE40F225511A4800F090FE47
:1033200060B1184800F00CFEC4B21F480188008844
:10333000401C1D4A10801D48445411E010211148C2
:1033400000F068FE60B10F480088C4B20D48001D4F
:103350000088C4B21448008840F400401249088034
:103360001148008800F4004080B30D48006868B33D
:1033700069461DE00038014000100140004C00404B
:103380000008014000440040004800401E040020A6
:103390001C0400202204002020040020C806002075
:1033A0000400002004ED00E024040020C8080020F0
:1033B0003C48006804F08CFA009838B14FF0805017
:1033C00039490860BFF34F8FBFF36F8F38BD38B5F1
:1033D00040F22551354800F033FE002849D03348EB
:1033E00000F0AEFDC4B23248008800F4004000286E
:1033F0003FD17B2C05D12F480088401C2D490880E7
:1034000006E07D2C04D12C480088401C2A49088005
:10341000284800882849098888420AD12448008819
:1034200040F40040224908800020224908802249B7
:1034300008801F480088C0F30D0020490C541C4828
:103440000088401C1A4908801A480088142809DCA2
:1034500019480088142805DC08460088C0F30D00D0
:10346000802806DD00201249088012490880124990
:1034700008800F48008800F4004088B109480068BF
:1034800070B169460748006804F022FA009838B124
:103490004FF0805004490860BFF34F8FBFF36F8F28
:1034A00038BD00000400002004ED00E0004C0040A6
:1034B0002A0400202E0400202C040020C80A00202A
:1034C0000648804706480047FEE7FEE7FEE7FEE7BE
:1034D000FEE7FEE7FEE7FEE7FEE7FEE74B05000836
:1034E0003101000810B50446CC48844208D10121BE
:1034F000042000F02DFB0021042000F029FB46E011
:10350000C748844208D10121082000F021FB002196
:10351000082000F01DFB3AE0C248844208D1012196
:10352000102000F015FB0021102000F011FB2EE010
:10353000BD48844208D10121202000F009FB002170
:10354000202000F005FB22E0B848844208D1012188
:10355000402000F0FDFA0021402000F0F9FA16E0CA
:10356000B348844208D10121802000F0F1FA002103
:10357000802000F0EDFA0AE0AE48844207D1012134
:10358000801500F0E5FA0021A01500F0E1FA10BD69
:1035900010B50121084600F0DBFA0021012000F0FF
:1035A000D7FA10BD2DE9F041024600250026002083
:1035B00000230024002791F803C00CF00F0591F8B8
:1035C00003C00CF0100CBCF1000F03D091F802C046
:1035D0004CEA050591F800C0BCF1000F31D0146829
:1035E00000202BE04FF0010C0CFA00F3B1F800C002
:1035F0000CEA03069E4220D183004FF00F0C0CFA18
:1036000003F7BC4305FA03FC4CEA040491F803C039
:10361000BCF1280F06D14FF0010C0CFA00FCC2F8E7
:1036200014C00AE091F803C0BCF1480F05D14FF077
:10363000010C0CFA00FCC2F810C0401C0828D1D3C1
:103640001460B1F800C0BCF1FF0F34DD54680020F5
:103650002EE000F1080C4FF0010808FA0CF3B1F865
:1036600000C00CEA03069E4221D183004FF00F0CEC
:103670000CFA03F7BC4305FA03FC4CEA040491F886
:1036800003C0BCF1280F05D100F1080C08FA0CF8B2
:10369000C2F8148091F803C0BCF1480F07D100F1C3
:1036A000080C4FF0010808FA0CF8C2F81080401C12
:1036B0000828CED35460BDE8F0814FF6FF71018039
:1036C000022181700421C170704702460020936876
:1036D0000B400BB1012000E00020704701468868D4
:1036E00080B2704702460020D3680B400BB1012026
:1036F00000E0002070470146C86880B27047016151
:103700007047416170470AB1016100E04161704753
:10371000C16070474FF480320A43826181618261E7
:1037200082698269704702460020434B18684FF651
:103730008073184040EA021008433F4B18607047FE
:103740003E49C8617047F0B50A46002300240021B5
:10375000002500F00046B6F1004F02D1364EF16967
:1037600001E0354E7168C0F3034583B200F44016A2
:10377000B6F5401F08D121F070612F4E766826F013
:1037800070662D4F7E6012E000F48016B6F5801F43
:1037900006D1032606FA05F4A14341F0706106E064
:1037A000460D360103FA06F6B14341F0706122B1CD
:1037B000460D360103FA06F6314300F00046B6F135
:1037C000004F02D11C4EF16101E01B4E7160F0BD53
:1037D00030B500228B071C0F0F2303FA04F2164B9F
:1037E00008338C1053F824309343134C08348D1055
:1037F00044F8253023468C1053F824308C07240FCE
:1038000000FA04F423430C4C08348D1044F825309E
:1038100030BD0A49DC3108607047000000080140F3
:10382000000C01400010014000140140001801404C
:10383000001C014000200140000001400000204227
:10384000DF48006840F00100DD4908600846406834
:10385000DC490840DA49486008460068DA4908400F
:10386000D74908600846006820F4802008600846B0
:10387000406820F4FE0048604FF41F0088607047E5
:10388000CF49096821F48031CD4A11601146096899
:1038900021F480211160B0F5803F03D0B0F5802F76
:1038A0000ED106E0C649096841F48031C44A11606E
:1038B00007E0C349096841F4A021C14A116000E052
:1038C00000BF00BF704710B5014600220023002052
:1038D0004A11012A02D1BA4C236806E0022A02D119
:1038E000B74C236A01E0B64C636A01F01F02012461
:1038F00094401C400CB1012000E0002010BD38B500
:10390000002000900024002500BF3120FFF7DBFFDE
:1039100005460098401C00900098B0F5A06F01D0BB
:10392000002DF2D03120FFF7CEFF08B1012400E0D6
:103930000024204638BD01460020A14A106820F02E
:10394000F80040EAC10010607047A0490860704765
:10395000024600209A4B586820F47C1042EA01038A
:103960001843974B5860704798490866704701465E
:103970000020934A506820F00300084350607047CD
:103980008F48406800F00C007047014600208C4AC8
:10399000506820F0F0000843506070470146002056
:1039A000874A506820F4E060084350607047014641
:1039B0000020834A506820F4605040EAC100506003
:1039C000704729B17E4A527A02437D4B5A7204E015
:1039D0007B4A527A82437A4B5A7270477B49D8317C
:1039E0000860704701460020754A506820F4404046
:1039F0000843506070470021714A20321170704AAC
:103A000082F82010012802D004280AD104E0012104
:103A10006B4A2032117005E00521694A203211708D
:103A200000E000BF00BF7047694908607047644903
:103A3000096A0143624A1162704765494439086066
:103A4000704730B500210022002400235C4D6D68D2
:103A500005F00C0121B1042905D0082923D105E086
:103A60005C4D056022E05B4D05601FE0544D6D68C4
:103A700005F47012524D6D6805F48034022505EB93
:103A800092421CB9544D554305600BE04C4D6D6896
:103A900005F400351DB1504D5543056002E04D4D14
:103AA0005543056002E04B4D056000BF00BF444D2B
:103AB0006D6805F0F0010909484D6B5C0568DD4053
:103AC00045603F4D6D6805F4E061090A434D6B5C4C
:103AD0004568DD4085603A4D6D6805F46051C90A5E
:103AE0003E4D6B5C4568DD40C560354D6D6805F445
:103AF0004041890B3A4D6B5CC568B5FBF3F5056138
:103B000030BD29B12E4A526902432D4B5A6104E05F
:103B10002B4A526982432A4B5A61704729B1284A7D
:103B200092690243264B9A6104E0254A92698243D6
:103B3000234B9A61704729B1214AD2690243204B35
:103B4000DA6104E01E4AD26982431D4BDA61704794
:103B500029B11B4AD2680243194BDA6004E0184AC3
:103B6000D2688243164BDA60704729B1144A126951
:103B70000243134B1A6104E0114A12698243104B4D
:103B80001A61704712494039086070470F49C8648C
:103B900070470B49C87170470948406A40F080700F
:103BA00007494862704701460020054A92680A406A
:103BB0000AB1012000E00020704701498872704777
:103BC000001002400000FFF8FFFFF6FE0000424236
:103BD0008004424200127A0000093D0030040020B7
:103BE0004004002031490143314A1160704770B5EB
:103BF000002100230F22C47804B32D4C246804F460
:103C0000E064C4F5E064210AC1F10403CA404478C9
:103C100004FA03F18478144021430901254C067805
:103C2000A155047804F01F050124AC4005786D11FE
:103C3000AD0005F1E025C5F8004109E0047804F085
:103C40001F050124AC401C4D0678761145F826402E
:103C500070BD1A4A0A400243154B1B1F1A60704779
:103C600039B1134A121D12680243114B1B1D1A6011
:103C700006E00F4A121D126882430D4B1B1D1A608D
:103C80007047042808D14FF0E021096941F0040190
:103C90004FF0E022116107E04FF0E021096921F0C7
:103CA00004014FF0E0221161704700000000FA05A6
:103CB0000CED00E000E400E080E100E080FFFF1F89
:103CC00010B50446FB48844209D101218803FFF75F
:103CD0003FFF00214FF48040FFF73AFF32E0F64803
:103CE000844209D101214804FFF73FFF00214FF42E
:103CF0000030FFF73AFF25E0F048844209D1012166
:103D00008804FFF732FF00214FF48020FFF72DFFDA
:103D100018E0EB48844209D10121C804FFF725FFD0
:103D200000214FF40020FFF720FF0BE0E54884421C
:103D300008D101210805FFF718FF00214FF480107A
:103D4000FFF713FF10BD2DE9F04786B005460E467C
:103D50000024A24600BFA1460027B08900B100BFE1
:103D60002F462C8A4CF6FF700440F08804432C82C6
:103D7000AC894EF6F3100440B0883189084371894C
:103D800008430443AC81AC8A4FF6FF400440B0893D
:103D90000443AC8201A8FFF754FEC648874202D113
:103DA000DDF810A001E0DDF80CA0A88900F40040C7
:103DB00040B10AEBCA0000EB0A1031684900B0FBC1
:103DC000F1F807E00AEBCA0000EB0A10316889003D
:103DD000B0FBF1F86420B8FBF0F004012009642185
:103DE00001FB1089A88900F4004040B1322000EBAB
:103DF000C900B0FBF1F000F00700044308E03220F6
:103E000000EB09106421B0FBF1F000F00F00044357
:103E10002C8106B0BDE8F0874FF4165101600021F7
:103E20008180C18001810C21418100218181704705
:103E300010B502460020108A4FF2FF0318400B888D
:103E40004C8823438C882343CC8823431843108217
:103E500010BD0021018041808180C180704721B167
:103E6000828942F40052828104E082894DF6FF7318
:103E70001A4082817047F0B50346002400260025D1
:103E8000002040F66A17B94200D100BF1846C1F3BE
:103E9000421401F01F06012707FA06F5012C01D193
:103EA0000C3004E0022C01D1103000E014301AB1C3
:103EB00007682F43076002E00768AF430760F0BD63
:103EC0001AB1838A0B43838202E0838A8B43838205
:103ED0007047028A4FF6F0731A400282028A0A4340
:103EE0000282704782894FF2FF731A408281828971
:103EF0000A438281704721B1828942F002028281A5
:103F000004E082894FF6FD731A4082817047028A6D
:103F10004FF6DF731A400282028A0A430282704718
:103F200021B1028A42F48042028204E0028A4BF606
:103F3000FF731A4002827047C1F308028280704703
:103F400001468888C0F308007047818941F001016B
:103F500081817047028BD2B20283028B42EA012236
:103F600002837047028B02F47F420283028B0A4372
:103F70000283704721B1828A42F02002828204E0EB
:103F8000828A4FF6DF731A408282704721B1828A9B
:103F900042F01002828204E0828A4FF6EF731A40E8
:103FA0008282704721B1828A42F00802828204E054
:103FB000828A4FF6F7731A408282704721B1828954
:103FC00042F40042828103E08289C2F30E028281C0
:103FD000704721B1828A42F40062828204E0828AC0
:103FE0004FF2FF731A4082827047828A4FF6FB734A
:103FF0001A408282828A0A438282704721B1828A71
:1040000042F00202828204E0828A4FF6FD731A4077
:104010008282704702460020B1F5007F00D100BFC8
:1040200013880B400BB1012000E00020704701F421
:104030000072B2F5007F00D100BFCA430280704712
:1040400070B50246002400230025002040F66A16C1
:10405000B14200D100BFC1F3421501F01F03012698
:1040600006FA03F3012D02D19689334006E0022DB2
:1040700002D1168A334001E0968A33400C120126A1
:1040800006FA04F41688344013B10CB1012000E0A4
:10409000002070BD10B50022002340F66A14A14232
:1040A00000D100BF0A1201249440A3B2DC43048073
:1040B00010BD0000003801400044004000480040AE
:1040C000004C00400050004010B50446FE488442B9
:1040D00008D10121C014FFF73BFD0021E014FFF7D8
:1040E00037FDC4E0B4F1804F08D101210846FFF745
:1040F0003CFD00210120FFF738FDB8E0F348844281
:1041000008D101210220FFF730FD00210220FFF736
:104110002CFDACE0EE48844208D101210420FFF7D9
:1041200024FD00210420FFF720FDA0E0E94884429F
:1041300008D101210820FFF718FD00210820FFF712
:1041400014FD94E0E448844208D101211020FFF7D7
:104150000CFD00211020FFF708FD88E0DF488442B5
:1041600008D101212020FFF700FD00212020FFF7CA
:10417000FCFC7CE0DA48844208D101214014FFF7BE
:10418000E7FC00216014FFF7E3FC70E0D5488442AF
:1041900009D10121C804FFF7DBFC00214FF4002006
:1041A000FFF7D6FC63E0D048844209D1012108051D
:1041B000FFF7CEFC00214FF48010FFF7C9FC56E05A
:1041C000CA48844209D101214805FFF7C1FC0021FA
:1041D0004FF40010FFF7BCFC49E0C548844208D109
:1041E00001214020FFF7C1FC00214020FFF7BDFC6A
:1041F0003DE0C048844208D101218020FFF7B5FC92
:1042000000218020FFF7B1FC31E0BB48844208D197
:1042100001218015FFF7A9FC0021A015FFF7A5FCDF
:1042200025E0B648844209D101210804FFF790FC3B
:1042300000214FF48030FFF78BFC18E0B048844237
:1042400009D101214804FFF783FC00214FF400301D
:10425000FFF77EFC0BE0AB48844208D101218804C3
:10426000FFF776FC00214FF48020FFF771FC10BDB2
:1042700000220288944B98420ED0994B98420BD062
:10428000B0F1804F08D0914B984205D0904B9842A6
:1042900002D0904B984204D14FF68F731A404B884E
:1042A0001A438D4B984207D08C4B984204D04FF65E
:1042B000FF431A40CB881A4302808B8883850B8882
:1042C0000385814B98420BD0854B984208D08B4B8D
:1042D000984205D08A4B984202D08A4B984201D12D
:1042E0000B7A038601238382704770B50024002275
:1042F0000023058C4FF6FE7635400584028C8388BA
:10430000048B4FF68F752C40B51E2C400D882C4326
:10431000751E2A400D892A434D882A436A4DA842BA
:104320000BD06F4DA84208D0744DA84205D0744DF3
:10433000A84202D0734DA84213D14FF6F7752A4018
:104340004D892A434FF6FB752A408D882A434FF644
:10435000FF652B404FF6FF552B408D892B43CD89B0
:104360002B4383800483CD888586028470BD70B51D
:10437000002400220023058C4FF6EF76354005849B
:10438000028C8388048B48F6FF752C404FF6FF455E
:104390002C400D884FF6FF7606EA05252C434FF694
:1043A000DF752A400D8906EA05152A434D8806EA7D
:1043B00005152A43444DA84202D0494DA8421DD1BB
:1043C0004FF67F752A404D894FF6FF7606EA0515B0
:1043D0002A434FF6BF752A408D8806EA05152A4301
:1043E0004FF6FF352B404FF2FF752B408D8906EAC3
:1043F00085052B43CD8906EA85052B4383800483FD
:10440000CD880587028470BD70B50024002200238A
:10441000058C4FF6FF6635400584028C8388848BBB
:104420004FF68F752C404FF6FC752C400D882C43B1
:104430004FF6FF552A400D894FF6FF7606EA05250F
:104440002A434D8806EA05252A431F4DA84202D07B
:10445000234DA8421DD14FF2FF752A404D894FF6DA
:10446000FF7606EA05252A434FF6FF352A408D8858
:1044700006EA05252A434EF6FF752B404DF6FF75DB
:104480002B408D8906EA05152B43CD8906EA0515D3
:104490002B4383808483CD888587028470BD70B56B
:1044A000002200230024058C4EF6FF76354005845B
:1044B000038C8488828B48F6FF752A404FF6FF45AF
:1044C0002A400D8820E00000002C0140000400403C
:1044D00000080040000C00400010004000140040A4
:1044E00000340140004C01400050014000540140A4
:1044F00000180040001C0040002000400040014027
:1045000000440140004801404FF6FF7606EA0525C9
:104510002A434DF6FF752B400D8906EA05352B43DE
:104520004D8806EA05352B43FA4DA84202D0FA4DD4
:10453000A84208D14BF6FF752C408D894FF6FF76C7
:1045400006EA85152C4384808283CD88A0F84050EC
:10455000038470BD828B4FF2FF331A408283828BBB
:104560004FF6FF7303EA01231A4382837047F0B5C5
:104570000C461546002200210026078C4EF6FF7CD3
:1045800007EA0C070784828B018C4FF6FF7707EA56
:10459000043640F6FF473A404FF6FF7707EA052713
:1045A0003A434FF6FF7707EA03373A43D94FB84209
:1045B0000ED0D94FB8420BD0B0F1804F08D0D74FB2
:1045C000B84205D0D64FB84202D0D64FB84206D135
:1045D0004DF6FF77394046F48057394305E047F6FA
:1045E000FF57394044F48057394382830184F0BD3A
:1045F000828B4FF6F3731A408283828B0A43828345
:104600007047F0B50C461546002200210026078CA5
:104610004FF6FF6C07EA0C070784828B018C4FF67C
:10462000FF7707EA04264FF60C773A404FF6FF77FC
:1046300007EA03172F433A43B64FB8420ED0B64F9E
:10464000B8420BD0B0F1804F08D0B44FB84205D07B
:10465000B34FB84202D0B34FB84206D14FF6FF571E
:10466000394046F48077394305E04FF2FF5739402F
:1046700044F48077394382830184F0BD028B4FF28A
:10468000FF331A400283028B4FF6FF7303EA0123C4
:104690001A4302837047F0B50C46154600220021EC
:1046A0000026078C4FF6EF7C07EA0C070784028B85
:1046B000018C4FF6FF7707EA041640F6FF473A40B1
:1046C0004FF6FF7707EA03373A434FF6FF7707EADB
:1046D00005273A438F4FB8420ED08F4FB8420BD0C8
:1046E000B0F1804F08D08D4FB84205D08C4FB84202
:1046F00002D08C4FB84206D14FF6DF77394046F0F2
:104700001007394305E04FF65F77394044F0100752
:10471000394302830184F0BD028B4FF6F3731A40D4
:104720000283028B0A4302837047F0B50C4615469C
:1047300000220021068C4FF6FE773E400684028B55
:10474000018C4FF60C7632407E1C06EA03162E438F
:104750003243704EB0420ED06F4EB0420BD0B0F12B
:10476000804F08D06D4EB04205D06D4EB04202D0A1
:104770006C4EB04206D14FF6FD76314044F0010652
:10478000314305E04FF6F576314044F00106314300
:1047900002830184F0BD70B505460C465D48854234
:1047A0000ED05D4885420BD0B5F1804F08D05B48F4
:1047B000854205D05A48854202D05A48854200D1E8
:1047C00000E000BF208850B92389A288618828466C
:1047D000FFF7ABFFE1882846FFF79EFF25E0208822
:1047E00004280AD12389A28861882846FFF753FF4D
:1047F000E1882846FFF742FF17E0208808280AD101
:104800002389A28861882846FFF7FBFEE1882846B5
:10481000FFF7EEFE09E02389A28861882846FFF7AA
:10482000A6FEE1882846FFF795FE70BD2DE9F04110
:1048300005460C4600260127608808B9022600E0DC
:104840000026A088012801D1022700E00127208846
:10485000A0B92389A28861882846FFF766FFE1880E
:104860002846FFF759FF23893A4631462846FFF785
:1048700012FFE1882846FFF701FF13E02389A28891
:1048800061882846FFF707FFE1882846FFF7F6FE14
:1048900023893A4631462846FFF747FFE1882846F4
:1048A000FFF73AFFBDE8F0810A884B881A438B88EE
:1048B0001A43CB881A430B891A434B891A438B89B5
:1048C0001A43A0F8442070474FF6FF718180002101
:1048D0000180C180418001727047002101804180C8
:1048E0008180C180018141818181C1817047002126
:1048F00001804180012181800021C18001817047B8
:104900000021018041808180C180018141818181BC
:1049100070470000002C01400034014000040040BA
:1049200000080040000C004021B1028842F0010262
:10493000028004E002884FF6FE731A40028070473E
:1049400031B1B0F8442042F40042A0F8442005E020
:10495000B0F84420C2F30E02A0F8442070471AB108
:1049600083890B43838102E083898B438381704772
:104970008182704741EA0203A0F8483070471AB1BB
:1049800083890B43838102E083898B438381704752
:1049900001894FF6F8721140018170470A460021E3
:1049A00001894FF68F73194011430181704730B56B
:1049B00004460D4629462046FFF7F0FF208940F0C7
:1049C0000700208130BD2DE9F04104460D46164612
:1049D0001F46602D06D13B46012231462046FFF797
:1049E0005AFE05E03B46012231462046FFF79DFE78
:1049F00029462046FFF7D2FF208940F0070020819A
:104A0000BDE8F08130B50C4600210189C9B24FF6EE
:104A1000FF7505EA0325154325432943018130BD70
:104A20002DE9F04105460E461746984600244346B8
:104A30003A4631462846FFF7E5FF2C894FF6F870D5
:104A4000044044F007044FF68F70044044F07004B3
:104A50002C81BDE8F081F0B504460D4616461F4690
:104A60003B46324629462046FFF7CCFF208940F4DA
:104A700080402081F0BD0185828270470A46002176
:104A800001884FF68F731940114301807047F0B5CC
:104A90000C4615461E460021002200230189028B88
:104AA000038C4FF6F877394021434FF6FC473A40E4
:104AB00040F201173A434FF6DD773B404FF6FF7760
:104AC00007EA06172F433B43018102830384F0BDAD
:104AD0000A460021018B4FF68F7319401143018361
:104AE00070470A460021018B48F6FF7319404FF6C4
:104AF000FF7303EA02231943018370470A4600212A
:104B0000818B4FF68F7319401143818370470A469A
:104B10000021818B48F6FF7319404FF6FF7303EABB
:104B2000022319438183704721B1028842F0800239
:104B3000028004E002884FF67F731A4002807047BB
:104B400021B1828842F00402828004E082884FF61C
:104B5000FB731A408280704721B1828842F00802BC
:104B6000828004E082884FF6F7731A408280704793
:104B700021B1828842F00102828004E082884FF6EF
:104B8000FE731A40828070470A460021018B4FF65F
:104B9000F77319401143018370470A460021018BC6
:104BA0004FF2FF7319404FF6FF7303EA02231943D4
:104BB000018370470A460021818B4FF6F773194035
:104BC0001143818370470A460021818B4FF2FF73A6
:104BD00019404FF6FF7303EA02231943818370479C
:104BE0000A460021018B4FF6FB73194011430183E4
:104BF00070470A460021018B4FF6FF3319404FF6EC
:104C0000FF7303EA02231943018370470A46002118
:104C1000818B4FF6FB7319401143818370470A461D
:104C20000021818B4FF6FF3319404FF6FF7303EAE3
:104C300002231943818370470A460021018B4FF6F6
:104C40007F7319401143018370470A460021018B8D
:104C5000C1F30E014FF6FF7303EA022319430183E8
:104C600070470A460021818B4FF67F73194011432C
:104C7000818370470A460021818BC1F30E014FF6F4
:104C8000FF7303EA02231943818370470A46002118
:104C9000018C4FF6FD7319401143018470470A4699
:104CA0000021018C4FF6F7731940114301847047BE
:104CB0000A460021018C4FF6DF7319404FF6FF734F
:104CC00003EA02131943018470470A460021018C4C
:104CD0004FF67F7319404FF6FF7303EA021319432F
:104CE000018470470A460021018C4FF6FF5319409A
:104CF0004FF6FF7303EA02231943018470470A4603
:104D00000021018C4FF2FF7319404FF6FF7303EA45
:104D100002231943018470470A460021018C4DF695
:104D2000FF7319404FF6FF7303EA023319430184FE
:104D3000704730B5002301248C40A3B2048C9C43FF
:104D40000484048C02FA01F5ADB22C43048430BD16
:104D500030B5002304248C40A3B2048C9C4304840B
:104D6000048C02FA01F5ADB22C43048430BD70B559
:104D70000346002000241846183001258D40ACB2AF
:104D80001D8CA5431D8409B1082909D100EB6100E0
:104D9000056825F0700505600568154305600EE09F
:104DA0000D1FC5F34E052844056825F4E045056050
:104DB00005684FF6FF7606EA02263543056070BDAA
:104DC00021B1028842F00202028004E002884FF61C
:104DD000FD731A400280704721B1028842F004023C
:104DE000028004E002884FF6FB731A40028070478D
:104DF00021B1828842F08002828004E082884FF6EE
:104E00007F731A408280704702884FF6F7731A400A
:104E1000028002880A430280704782884FF68F73AF
:104E20001A40828082880A438280704702894FF646
:104E3000F8731A40028102890A430281704702898D
:104E40004FF67F731A40028102890A43028170473C
:104E500081847047818570478186704701877047DC
:104E600081877047A0F84010704702884FF6FF43D3
:104E70001A40028002880A43028070470146888EE9
:104E800070470146088F70470146888F704701467A
:104E9000B1F8400070470146888C70470146088D84
:104EA000704702460020138A0B400BB1012000E03E
:104EB00000207047CA430282704730B50246002086
:104EC00000230024158A05EA0103958905EA0104F7
:104ED00013B10CB1012000E0002030BDCA430282B2
:104EE00070470000002044490860091D0860091D42
:104EF0000860091D086041483F4914310860704747
:104F000000213D498279002A3AD00A461268036896
:104F10009A430B461A600A1D126803689A430B1DD8
:104F20001A60027911440A6803681A430A60324A17
:104F30000832126803689A432F4B08331A601A1D0F
:104F4000126803689A432C4B0C331A604279102A7A
:104F50000ED11A1F126803681A43274B08331A60D0
:104F60001A1D126803681A43234B0C331A600DE0B4
:104F70002149427911440A6803681A430A6005E02E
:104F8000027911440A6803689A430A607047002155
:104F9000016001710C214171002181717047164936
:104FA000103109680143144A1032116070470146FC
:104FB0000020114A143212680A400AB1012000E0B0
:104FC000002070470C4914310860704701460020EA
:104FD0000022094B1B6803EA0102074B14331B68CC
:104FE0000B4013B10AB1012000E0002070470249D4
:104FF000143108607047000000040140FFFF0F00FB
:1050000010B50446BE48844208D101218014FEF741
:105010009FFD0021A014FEF79BFD16E0B9488442D5
:1050200008D101210014FEF7A0FD00212014FEF795
:105030009CFD0AE0B448844207D10121C013FEF769
:1050400094FD0021E013FEF790FD10BD10B5002285
:10505000028802F441520B884C8823438C882343F6
:10506000CC8823430C8923434C8923438C892343D5
:10507000CC8923431A430280838B4FF2FF74234071
:1050800083830B8A038210BD2DE9F04F85B005465E
:105090000C464FF0000902274FF000084FF0010BBB
:1050A0000026B246A88B4FF240010840A883022098
:1050B0002884B5F81C90A068022801D100BF38E010
:1050C000A08810B94FF0010B01E04FF0020B8D48A2
:1050D000854200D100E000BF6846FEF7B2FCDDF873
:1050E00000A0E088B0F5007F0AD14FEA1A2000EB5B
:1050F00080004000A168B0FBF1F0401D86B20BE0DB
:105100004FEA4B10BAFBF0F000EB80004000A168C2
:10511000B0FBF1F0401D86B20A20B6FBF0F606F0B7
:105120000108A6EB0800C0F34F074FF6FF7000EA36
:105130000828022F01DBFF2F02DD02274FF00008B5
:10514000E08840EA080038432884A088A189084301
:10515000618808432188084340F4006040EA090957
:10516000A5F81C9005B0BDE8F08F002101804180BA
:105170008180C180018141818181C18107210182BA
:1051800070470021018041808180C18002218160BF
:1051900000218181704721B1028842F040020280E3
:1051A00004E002884FF6BF731A400280704721B1B5
:1051B000828B42F48062828304E0828B4FF6FF335D
:1051C0001A408283704730B5002400230C1101255A
:1051D000A540ABB21AB185881D43858002E0858861
:1051E0009D43858030BD1AB183880B43838002E0E4
:1051F00083888B438380704781817047014688890B
:1052000070474FF6FF62914204D0028842F48072E8
:10521000028004E002884FF6FF631A400280704764
:1052200021B1828842F00402828004E082884FF635
:10523000FB731A408280704702884FF2FF731A4056
:10524000028002880A4302807047018841F480513D
:105250000180704721B1028842F40052028004E0CC
:1052600002884DF6FF731A40028070470246002004
:10527000012901D0108B00E0908A70470146088A0E
:105280007047B1F5804F04D1028842F48042028019
:1052900004E002884BF6FF731A4002807047024612
:1052A000002013890B400BB1012000E00020704763
:1052B000CA4302817047F0B5024600200024002353
:1052C000002501F00F070126BE40B4B20B110126E4
:1052D0009E40B3B2968806EA03051689264016B1A9
:1052E0000DB1012000E00020F0BD10B5002201F05A
:1052F0000F040123A3409AB2D343038110BD0000E1
:105300000030014000380040003C004000F108013E
:1053100041604FF0FF31816000F10801C16001611F
:1053200000210160704700210161704742684A60B6
:1053300093688B60936859609160086103685B1C97
:105340000360704710B502460B685C1C0CB910690D
:1053500007E002F1080000E04068446824689C42CD
:10536000FAD944684C604C68A160886041600A6169
:105370001468641C146010BD01460A69D1E901304B
:105380009860D1E9010358605068884201D188686B
:105390005060002008611068401E1060106870475F
:1053A00070B505460E462C462CB940F21B12FAA1E8
:1053B000FEA006F02BFA02F0C2FED4E90F1220681C
:1053C00001FB020060600020A0632068A060E06B29
:1053D000401E226C216800FB0210E060FF2084F870
:1053E000440084F845009EB9206908B9012000E016
:1053F0000020A8B904F1100001F018FE80B14FF0B0
:105400008050EE490860BFF34F8FBFF36F8F07E006
:1054100004F11000FFF77AFF04F12400FFF776FF94
:1054200002F0B0FE012070BD2DE9F04106460D46A8
:1054300017469846069C0DB9246000E02760E66395
:10544000256401212046FFF7ABFF84F8508000203F
:10545000A064BDE8F0812DE9F84305460E4690466C
:105460000DB1012000E0002028B94FF4C472CAA198
:10547000CEA006F0CBF90EB9002701E005FB06F738
:1054800007F1540002F067FF044644B104F15409E7
:1054900043464A46314628460094FFF7C5FF20465A
:1054A000BDE8F8832DE9F04104460F4615464FF05C
:1054B0000008A66B206C40B9206860BB606801F0F2
:1054C00018FF80460020606025E07DB93946226CD7
:1054D000A06805F0A3F9216CA0680844A060D4E995
:1054E0000110884217D32068A06014E03946226C6E
:1054F000E06805F093F9216CE068401AE0602168EB
:10550000E068884203D2216C6068401AE060022D96
:1055100001D106B1761E701CA0634046BDE8F08143
:105520002DE9F3410D460098846C00272CB940F614
:10553000CE1299A19DA006F069F9A06BE16B88429B
:1055400001D2012000E0002028B940F6CF1292A13C
:1055500096A006F05BF9A06BE16B88421BD294F930
:1055600045602A4669462046FFF79CFF0746701CA7
:1055700060B9606A08B9012000E0002050B904F168
:10558000240001F053FD28B1012703E0701C40B254
:1055900084F8450000BF3846BDE8FC8170B504467C
:1055A00002F0CDFD94F945501AE0A06C38B100210D
:1055B0002046FFF7B5FF88B101F02BFE0EE0606AD0
:1055C00008B9012000E0002038B904F1240001F0FE
:1055D0002DFD18B101F01DFE00E003E0681E45B28C
:1055E000002DE2DC00BFFF2084F8450002F0CAFD78
:1055F00002F0A5FD94F9445010E0206908B901209B
:1056000000E0002048B904F1100001F00FFD08B1DE
:1056100001F0FFFD681E45B200E001E0002DECDC6A
:1056200000BFFF2084F8440002F0ACFD70BD70B5EF
:10563000054602F084FDA86BE96B884201D1012484
:1056400000E0002402F09EFD204670BD2DE9FF43DE
:1056500083B0064688461D464FF0000934462CB9F3
:1056600040F2D9224CA151A006F0D0F8B8F1000FB9
:1056700001D1206C08B9012000E0002028B940F2D7
:10568000DA2245A149A006F0C1F8022D02D1E06B53
:10569000012801D1012000E0002028B940F2DB22DE
:1056A0003DA142A006F0B2F801F0C5FD08B9059889
:1056B00008B9012000E0002028B940F2DE2236A11E
:1056C0003AA006F0A3F800BF02F039FDA06BE16B31
:1056D000884201D3022D38D12A4641462046FFF7A1
:1056E000E1FE0746A06C68B129462046FFF718FF87
:1056F00028B34FF0805031490860BFF34F8FBFF39C
:105700006F8F1CE0606A08B9012000E0002068B9D2
:1057100004F1240001F08AFC88B14FF08050274941
:105720000860BFF34F8FBFF36F8F08E03FB14FF0BA
:10573000805022490860BFF34F8FBFF36F8F02F094
:1057400021FD012007B0BDE8F083059818B902F0EB
:1057500019FD0020F6E7B9F1000F04D101A801F00E
:10576000E9FC4FF0010902F00DFD00F07FFF02F0AF
:10577000E6FC94F94400401C10B9002084F8440071
:1057800094F94500401C10B9002084F8450002F04F
:10579000F9FC05A901A813E02E2E5C46726565523E
:1057A000544F535C71756575652E63004572726F59
:1057B000723A25732C25640D0A00000004ED00E008
:1057C00001F0CAFCF8B92046FFF731FFA8B104F197
:1057D0001000059901F0CCFB2046FFF7DFFE00F03A
:1057E0009AFE00287FF470AF4FF08050FA490860AD
:1057F000BFF34F8FBFF36F8F66E72046FFF7CEFEF4
:1058000000F089FE60E72046FFF7C8FE00F083FE47
:10581000002097E710B504464CB10020606020607E
:10582000E06000231A4619462046FFF70FFF10BD1F
:105830002DE9F041044601260027224600210120DF
:10584000FFF709FE05462846FFF7E4FF2846BDE8B6
:10585000F08170B5064634463CB940F24122AFF2C1
:10586000C801AFF2B80005F0D1FF01F0E1FC6168BA
:1058700088420CD1E068401EE060E06828B900234F
:105880001A4619462046FFF7E1FE012500E00025F3
:10589000284670BD70B5054602F051FCA86B08B9EA
:1058A000012400E0002402F06DFC204670BD70B5BC
:1058B00004460D46206C70B1216CE0680844E0603D
:1058C0006168E068884201D32068E0602846226C65
:1058D000E16804F0A3FF70BD2DE9FF4782B00546E3
:1058E0000E461F464FF0000A2C463CB940F2DC42FF
:1058F000AFF25C11AFF24C1005F088FF0EB9206CCE
:1059000008B9012000E0002038B940F2DD42AFF2D2
:105910007811AFF2681005F079FF01F08CFC08B93E
:10592000049808B9012000E0002038B94FF49C62C7
:10593000AFF29C11AFF28C1005F068FF00BF02F0CF
:10594000FEFBD4F83890B9F1000F3DD0D4F80C80AC
:1059500031462046FFF7ABFFDFB9A9F10100A06394
:10596000206810B901F0FFFD6060206908B90120CE
:1059700000E0002010BB04F1100001F057FBE8B17B
:105980004FF0805094490860BFF34F8FBFF36F8F83
:1059900014E0C4F80C80606A08B9012000E000201F
:1059A00060B904F1240001F041FB38B14FF08050A0
:1059B00089490860BFF34F8FBFF36F8F02F0E2FB9E
:1059C000012006B0BDE8F087049818B902F0DAFBB0
:1059D0000020F6E7BAF1000F04D1684601F0AAFBF7
:1059E0004FF0010A02F0CEFB00F040FE02F0A7FBF0
:1059F00094F94400401C10B9002084F8440094F944
:105A00004500401C10B9002084F8450002F0BAFBA4
:105A100004A9684601F0A0FB40BB2046FFF73AFF0F
:105A2000F0B1206830B902F08AFB606801F00FFC29
:105A300002F0A8FB04F12400049901F099FA204631
:105A4000FFF7ACFD00F067FD00287FF478AF4FF062
:105A5000805061490860BFF34F8FBFF36F8F6EE7CF
:105A60002046FFF79BFD00F056FD68E72046FFF754
:105A700095FD00F050FD2046FFF70CFF0028EED00A
:105A800000209EE72DE9F04106460F4634463CB91A
:105A90004FF41E72AFF20031AFF2F02005F0B6FE07
:105AA00001F0C6FB6168884204D1E068401CE060F8
:105AB00001250AE000233A4619462046FFF70CFF6D
:105AC000054615B1E068401CE0602846BDE8F0815D
:105AD00070B505460E460DB1012000E0002038B932
